:020000041000EA
:10000000F2EB88718C8A0010AC8A0010A8000010F6
:1000100090A31AE7D3DEFFFF420101114403000061
:100020003600001000200820FF040000C4C20000B9
:10003000793512AB79A8975100109381F1D317212C
:100040000810130121FC173500101305B55F73105C
:100050005530732540F135ED1707000013070705EC
:100060000C4391C55043144731071D28D5BF973520
:1000700000109385E57B174600101306A65821A0B3
:1000800023A005009105E39DC5FEEF30C0576D2A02
:10009000EF30E0530290FDBF884108C29105110680
:1000A000E36CD6FE82800100AC8A001000000020C4
:1000B0002C380020D8C200100000082000000820C2
:1000C000D8C2001000100820001008200000000016
:1000D000828021651305C5DF02859307000089CF63
:1000E000974500109385C544177500001305856B6F
:1000F00017030000670000008280557186C7A2C503
:10010000A6C3CAC12A89AE84B73500209385C55BD2
:100110000A852125014431A0B30589000A852125DE
:100120004104E34B94FEBE402E449E440E49696157
:1001300082805D7186C696C49AC29EC022DE2ADC89
:100140002EDA32D836D63AD43ED242D046CE72CC0F
:1001500076CA7AC87EC67327203473241034A14728
:100160006306F7049307B7FF93B71700930697FF4B
:1001700093B61600D58FD1CB3785001013050580B7
:10018000EF304076378500101305C583EF3080755A
:10019000A2853785001013054586EF30807B3785B3
:1001A000001013058588EF30E07301A08547630DCB
:1001B000F502930730066303F50411047310143439
:1001C000B640A6421643864372546255D2554256F3
:1001D000B256225792570258F248624ED24E424FC0
:1001E000B24F6161730020302E85C14539373775B4
:1001F00000101305057AEF30E06EC1B737750010B7
:100200001305457DEF30006E01A0BA8537850010DB
:100210001305058CEF30E07301A0411106C6F327EA
:1002200000309397B7489397C7487390073073107F
:100230001534378500101305C58EEF30A06A7300A2
:100240002030B24041018280411106C6EF30A066E5
:100250000565130585BBEF10206E3785001013056B
:100260000592EF302068378500101305C594EF30F4
:1002700060673785001013058597EF30A066B707D4
:10028000001093872713739057303705001013051C
:10029000052A613701A0AA85054573000000828008
:1002A000797106D622D426D2B78700109387C7AEBD
:1002B0009043D443984732C636C83ACAD8473ACC56
:1002C00083C70701230EF100814435A89307040278
:1002D0008A9783C5C7FE37850010130585A5EF30C3
:1002E00040670504BD47E3D387FE2945EF30605DD5
:1002F0008D476381F40802C42247B7574C009387A7
:10030000F7B363D6E70AA685850437850010130581
:10031000459AEF3000643766666613067666339654
:10032000C402098693D7F4411D8E3346C6200606C3
:100330003386C44060005106B78500109385459C04
:100340002285EF30A021A285378500101305859DF9
:10035000EF30206037850010130505A0EF3080587E
:100360002285153F37850010130545A3EF30605EE9
:1003700001448DBF37850010130505A6EF30805668
:10038000378500101305C5A8EF30C055B7370020DA
:1003900083C7C75B93F7F70FA303F1008345710091
:1003A00037850010130505ACEF30A05AA9B7A24756
:1003B00085073EC491B70147B1A093172700B34604
:1003C000A7203346B720034606002380C600938645
:1003D00017003306D500AE9683C606002300D6006C
:1003E000938627003306D500AE9683C60600230009
:1003F000D6008D07B306F500AE9783C707002380AC
:10040000F60005078D47E3FAE7FA91471307B002B4
:100410006362F7124111BDA8139727001386C7FF27
:10042000931626003346A620034606000348C10063
:10043000B3C5A720334606012380C50013861600E6
:100440002A96834506000348D100130617002A9612
:10045000B3C505012300B600138626002A968345FE
:1004600006000348E100130627002A96B3C50501DC
:100470002300B6008D06AA9683C606000346F10047
:100480000D072A97B18E2300D70085071307B00206
:100490006360F70A9386F7FF13972600B3C6A6207A
:1004A00003C806002306010193061700AA9683C518
:1004B0000600A306B10093062700AA9603C606000D
:1004C0002307C1000D072A9783460700A307D10021
:1004D00013F7370031F32306B100A306C100230749
:1004E000D100A3070101378700101307C736BA955B
:1004F00083C505002306B1003A9603460600A3060D
:10050000C100BA9683C606002307D100429703476D
:100510000700A307E10093D62700378700101307D1
:100520000736369703470700B98D2306B100EDB5AE
:10053000410182808280814815A8B3C6B820BE964A
:1005400003C80600334715213347F7203297034786
:1005500007003347E8002380E600850793F7F70F8D
:100560000D47E37CF7FC850893F8F80F8D4763E4AB
:1005700017018147F5B78280014605A8B3C6A720B9
:10058000B29683C50600378700101307C7362E972B
:10059000034707002380E600850793F7F70F0D4711
:1005A000E37EF7FC05061376F60F8D4763E4C7007C
:1005B0008147F5B782808347150003475500A300A4
:1005C000E50003479500A302E5000347D500A30417
:1005D000E500A306F500834725000347A500230196
:1005E000E5002305F500834765000347E500230385
:1005F000E5002307F500834735000347F500A30115
:10060000E5000347B500A307E50003477500A30510
:10061000E500A303F5008280135775009317370098
:10062000998F8A07998F06053D8D1375F50F828086
:10063000797106D622D426D24AD04ECE52CC56CA92
:100640005AC85EC62A8B014AA5A033446A21834B4F
:100650000400834A140033C57A0183492400034906
:100660003400B3443501B34499007D37B3C7A400C7
:10067000B3C7FB002300F40033C53A01713F258D59
:10068000B3CAAA00A300540133C529017137258DCF
:10069000B3C9A9002301340133457901B53FB3C77C
:1006A000A400B344F900A3019400050A137AFA0FD9
:1006B0008D47E3FC47F9B250225492540259F24953
:1006C000624AD24A424BB24B45618280411106C612
:1006D00022C426C24AC0AA842E892E86AA85014534
:1006E000993D05442685493D2685F135A947630C8A
:1006F000F4002685353F4A86A68522852D3D0504D2
:100700001374F40FC5B74A86A68529452D35B24026
:1007100022449244024941018280411106C6613956
:10072000B24041018280411106C6AE87AA853E854E
:10073000713FB24041018280397106CE22CC2A84B9
:100740002ED232D436D63AD83EDA42DC46DE37856F
:100750000010130505B0EF30E01801CC4C102EC688
:100760002285EF30A01A378500101305858EEF30F3
:1007700060170545EF20706573750430B74700209A
:10078000938777CE139737003317E028F19BAFA6F6
:10079000E744F98EEDFE0F00300382800F00300336
:1007A000B74700209387C7CDA38507002189732011
:1007B00005308280411106C622C426C24AC0AA84DE
:1007C0002E843289553F935734003387F400834693
:1007D000070093777400B317F02833F6F60009EE9C
:1007E00093F7F70FD58F2300F7004D3FB240224417
:1007F0009244024941018280A2854A85353F011118
:1008000006CE22CC26CA4AC84EC652C42A89AE8910
:100810003284B6843A8A8D3711A0050463E68402D7
:10082000135634004A960348060093777400B317B2
:10083000F028B378F800E39208FE93F7F70FB3E7D8
:1008400007012300F60011A07D54893F9357F4015E
:10085000B3F7370191EB2285F2406244D24442491A
:10086000B249224A056182805285F9353747002016
:100870000345C7819307150093F7F70F230EF78001
:100880005D476377F700B74700204147238EE78035
:100890008280411106C6AA8537870010130707B169
:1008A000FD4661463745002013058557893FB24014
:1008B00041018280014719A80F003003B74700208B
:1008C0009387C7CDBA97238007000507FD47E3F557
:1008D000E7FE828093574501FE0713571500560720
:1008E000B706E07F758FD98F1357B5005207B7064B
:1008F0001000758FD98F37F70F00798D5D8D82804D
:100900009357B500B2070567F98F135745002E07B7
:100910009316B028758FD98F135785002607137744
:100920000760D98F1357A500220713770710D98FB7
:10093000135765001E0713770708D98F13577500E3
:100940001A0713770704D98F135715000E0713776B
:100950008703D98F15810A0511895D8D8280035720
:1009600005009356270093F7E60013567700418A57
:10097000D18F1316370013760602B297135617005D
:1009800093750604AE979315170093F50508AE9777
:1009900013760630B2970A0713770740BA971317F2
:1009A000B028F98E958F3E95828015C206059397E3
:1009B0000501C98F73B027BE05054177F98D4D8DAF
:1009C000733025BE73A007BE732005BE8280060566
:1009D00093970501C98F73B007BE0505C177FD8DDB
:1009E0004D8D733005BE8280F3275030F19B130587
:1009F00045033345F5200CC10F0030030F003003D1
:100A0000B74700209387C7CDA3840700218A7320AE
:100A100006308280411106C63385A5401307F57F55
:100A200005078567F91763EFE7009377150099EBE2
:100A3000C13D136515001315D52833450508B2408F
:100A400041018280B78600109386C6B237860010B7
:100A50001306864893058012378500101305C5B527
:100A6000EF205037411106C67537E1775D8D33456C
:100A70000508B2404101828093574500F3A707BEA5
:100A8000C1833D893315A0287D8D3335A000828038
:100A9000411106C6193FB24041018280411106C68C
:100AA0002E86B315A0281581E537B240410182801A
:100AB000935745003D893315A0284205C98F73A07F
:100AC00027BE8280F3275030F19B13054503334541
:100AD000F52008418280411106C6ED37B737002066
:100AE0009387C75C1D8D13350503B2404101828099
:100AF000411106C622C426C24AC0AA842E84737736
:100B000004303A89B7470020938757CE13973700B0
:100B10003317E028F19BAFA6E744F98EEDFE0F00F6
:100B200030034D37B73700209387477E6304F500C5
:100B3000631C85004A86A28526857D35B240224405
:100B40009244024941018280B7860010938646BADA
:100B5000378600101306C64A9305D00E378500105D
:100B60001305C5B5EF201027397106DE22DC5ECEF5
:100B7000F3770430BE8BB7470020938757CE139787
:100B800037003317E028F19BAFA6E744F98EEDFE5E
:100B90000F003003B74700200384C7576345040C98
:100BA00026DA4AD84ED652D456D2AA8A2E89B28490
:100BB000B3298420B73700209387C75CB3C9F920D5
:100BC0008386A90037470020230ED756F3265030DE
:100BD000F19A130745033347D720032A0700B307C9
:100BE000FA401307F002637DF70CB73700209387B4
:100BF000477E6313FA0A5AD0131A1400B3278420CD
:100C0000373B0020130BCB5CB3C76721373500207F
:100C10001305C55F1D8D7D391365F52E2AC24AC4A3
:100C2000F177938727E42316F100FD572307F1009E
:100C3000A3079100B3078A00B3C7672188C323A223
:100C40002701324798C74E8A5E86D2855685693B12
:100C5000D2544259B259225A925A025BF25062540B
:100C6000F24B2161828026DA4AD84ED652D456D22F
:100C70005AD062CC66CA6AC8B78600109386C6BDD1
:100C800037860010130646499305C01737850010B4
:100C90001305C5B5EF2010145AD062CC66CA6AC8D5
:100CA000B7860010938646C0378600101306464963
:100CB00093053018378500101305C5B5EF20901146
:100CC00037B7AAAA1307B7AA33B7E7020D833327AA
:100CD000E7200A076397E7025AD0D287014B03C780
:100CE000B70063F5E4040387A700634007043327D4
:100CF000E7203E8BB73700209387C75CB347F720C8
:100D0000F9BF5AD062CC66CA6AC8B786001093860B
:100D1000C6C2378600101306464993054019378529
:100D200000101305C5B5EF20F00A3E8B63080B08D1
:100D3000931719000567F98FCA9793F70780939760
:100D4000B74893E7770B3EC252091369790E13191E
:100D5000F9284AC40309AB0063520904316513053D
:100D600025E42316A10023072101A3079100CE85C6
:100D700013058B00C5392314AB0023058B00B7374F
:100D80000020332484209387C75C3344F4209247A7
:100D90001CC0A2475CC0B2471CC47DB513058B00C4
:100DA0007D3EAA85B3278420373700201307C75C10
:100DB000B3C7E72013858700753165B762CC66CA73
:100DC0006AC8B327842037370020130BC75CB3C72A
:100DD00067213E8C373500201305C55F1D8DDD3C36
:100DE0009367F52EBE8C3EC24AC4D28513058C0093
:100DF00095392316A100B3076A41898737B7AAAA94
:100E00001307B7AAB387E7022307F100A3079100EE
:100E100023209C0123222C0132472324EC000327AA
:100E20004A00931717008566F58FBA9793F70780E6
:100E30009397B74893E7770B2320FA00520713677D
:100E4000770E1317F7282322EA004E8A624CD24C01
:100E5000424DDDBB93D7450093C7F700935625005D
:100E60000D890A053D473317A7004207558F733098
:100E700037BEB397A700C207DD8E73A036BE82804F
:100E8000411106C622C4014431A093050008228501
:100E9000D137050493073003E3F987FE736004300C
:100EA000B240224441018280411106C6B73700207A
:100EB0009387C75CB307F5401307F0026367F70237
:100EC000732750BEA167F98FA9C3B7860010938618
:100ED00086CD378600101306C64693052028378531
:100EE00000101305C5B5EF20E06EB786001093869D
:100EF00006CB378600101306C6469305F0273785C4
:100F000000101305C5B5EF20E06C11831377F71FB0
:100F10001307470373780430B7460020938656CEF4
:100F2000139636003316C028F19AAFA8C644B3F81A
:100F3000C800E39C08FE0F003003B73600209386FC
:100F4000C65CB306D540898637B6AAAA1306B6AAE8
:100F5000B386C6029396466073265030719A9318F2
:100F600027003347C72018436313A704F3275030E3
:100F7000F19BC697373700201307477E98C3B747C2
:100F8000002003C7C7572305E500238ED7560F005F
:100F90003003B74700209387C7CDA3840700137899
:100FA000880073200830B2404101828085070D47D8
:100FB000636CF7023736002033A7F7201306C65CB0
:100FC0003347C7200307A700E312D7FE328733A6B3
:100FD000F7203346E620FD552305B6007177130749
:100FE00027E42314E60061BFB7860010938646CE3F
:100FF000378600101306C646930530293785001042
:101000001305C5B5EF20005D411106C6AA853787D7
:1010100000101307C7CE954601463745002013053B
:10102000D557EFF0CFFD63460500930730033385B6
:10103000A740B24041018280B74700209387C7CDC7
:10104000AE971CC18280411106C622C42A84EFF0EB
:10105000FF81AA852285CD37FD572302F4000F00BA
:101060003003B240224441018280411106C622C4AD
:101070002A84EFF0AFFFAA8522857D3FFD5723022A
:10108000F400A30204000F003003B24022444101E7
:101090008280411106C622C43744002013044482D2
:1010A0001DA0B7860010938686D0378600101306E1
:1010B000C64EE94537850010130585D2EF208051D3
:1010C000228551372104B74700209387C782637B6D
:1010D000F4001C40F5D70547E395E7FC22857137FE
:1010E0002104D5B7B240224441018280B747002095
:1010F0009387C7CDAE971CC10F003003828041118A
:1011000006C622C42A840545EFF0AFF8AA852285D9
:10111000F13FB2402244410182802A87F32750BE2A
:101120009396070163C10602918393F7F71F938794
:1011300047039387C7FC93D6270081CA37850B40A6
:101140008D8B1CC382808147EDB737050B40CDBF27
:101150001855B306E64093874500B3C7A7209C43C4
:10116000998F63E7F6001C513317B028F98F89E790
:10117000910533C5A52010C1828042054D8D828026
:10118000B746002083A706587377043013963700BC
:101190003316C028F19BAFA5C744F18DEDFD0F00BC
:1011A000300383A706580F0030032380070093778E
:1011B000870073A0073033201000014581458280ED
:1011C000397106DE22DC26DA4AD84ED652D456D2FF
:1011D0005AD05ECE68009137B787F4BFAA9793B70D
:1011E00017003247B7460020B3C7E720938646541E
:1011F000B3C7D720804383470400631BF700AA844A
:10120000930745043317E0288D66B69798C359A411
:10121000B78600109386C6DB37860010130686510A
:101220009305200937850010130585DEEF20803AED
:101230005C48B3292921B3E9F92083AA890003AACC
:10124000C9002685EF00500E330755413337E500BE
:10125000B3874541998F63C7072463400A0E03ABE8
:101260000901B71700109387071C6307FB0683D596
:10127000290003158400113783A54901029B2A8B9D
:10128000AE8BB3677B01D5CB63D40B06B3866A41C3
:10129000B3BADA00B3077A41B387574123A4D90020
:1012A00023A6F90003950900634E051E8328440117
:1012B0003327A52033671721104758473386C64088
:1012C00033B6C6003387E740118F634D071C2314E4
:1012D000A4001308840015A883AB490183A70B0160
:1012E0005E85829739C903AB0B0083AB4B0051BFBE
:1012F0002685EF007003B306AB00B3B7A600AE9B24
:10130000DE9769BF3A880315070063430502031798
:1013100008003327E720336717210C475047B38570
:10132000B640B3B5B6003386C7400D8EE35C06FC0D
:101330002390A90023102801B5A283970900231444
:10134000F4001C487377043093963700B316D02806
:10135000F19B2FA6D744758E6DFE0F0030038317C7
:1013600024002390F900231124011C480F003003AE
:10137000238007009377870073A0073025A21C48BD
:101380007377043093963700B316D028F19B2FA6BD
:10139000D744758E6DFE0F003003035E4400131EAC
:1013A0005E60FD572312F4001C480F0030032380B9
:1013B00007009377870073A007302DA8BE8503969A
:1013C00007006343060283970500B3A7F720B3E73E
:1013D00007219447D847B306D540B336D5003387A5
:1013E000E840158FE35C07FC2390C501031E030052
:1013F0002310C300634E0E0A032844013323CE2179
:1014000033630321032583008328C30093058400ED
:10141000031684007DB7230304009305840003179B
:10142000840025A07D58FD5823A4070123A6170199
:1014300083168400638AE6002390C5008316840027
:101440002390D7002314E4003287FD576305F70685
:101450005448B327E720B3E7D7200396070083D685
:10146000270093965660E3CF06FABE85F1BF4E86FD
:10147000CA86B2452685E93926857D25B387A940E8
:10148000B3B9F9003309B94033093941634920053B
:1014900063060904B247B317F028DCDC03198400A3
:1014A000E35809D88357440093975760E3D907EC72
:1014B00083476400ADF38317840063C20702584872
:1014C000B3A7F720B3E7E72083A9870003A9C700E4
:1014D000FD57E39EF9F8E30139FB51BFC5DF332027
:1014E0001000F2506254D2544259B259225A925AC0
:1014F000025BF24B21618280411106C622C426C2E2
:101500004AC02A84AE84B285B7870B406309F502CE
:1015100001492699B314902804D04A85EFF04FDD95
:1015200085454A85EFF08FD71304040489673E94FC
:1015300004C0B240224492440249410182801149D0
:10154000C9BF011106CE22CC26CA4AC84EC62A847B
:101550002E89B289B6844CC5EFF04FB1B747002051
:101560009387C7CDAA971CC823003401B3C70408CA
:101570002315F400370700D003470700A300E40059
:101580007D572314E4002312E400BA972311F400DA
:10159000814721A81388F7FF8328440133A7F72048
:1015A00033671721231007018507E3E597FEB78707
:1015B000F4BFCA9793B7170037470020B3C7372146
:1015C00013074754B3C7E72080C33716001013062C
:1015D000061CCE854A850D37F2406244D24442490A
:1015E000B24905618280B7370020938787619C4BA1
:1015F00091C737350020130585618280411106C6E9
:10160000B7860010938686E23786001013060650D0
:101610009305500637850010130585DEEF10907B8B
:10162000411106C622C426C24AC02A841C497375C9
:1016300004301398370033180029F19BAFA80745F1
:10164000B3F80801E39C08FE0F00300303192400DF
:101650005C48B3242921B3E4F4206346090083974E
:1016600004002311F4001C480F00300323800700FE
:101670009377850073A007306341090894C8D8C8E0
:101680008CC4D0C483D524008505B3C50508A167E3
:10169000FD17FD8D91E185452391B4004A85F13C0C
:1016A0001C487377043093963700B316D028F19B0B
:1016B0002FA6D744758E6DFE0F003003835744006C
:1016C0002390F400231224011C480F0030032380D0
:1016D00007009377870073A007305C44034704003A
:1016E000938747043317E0288966B69798C3B240BA
:1016F000224492440249410182807D55CDBF0111AF
:1017000006CE22CC26CA4AC84EC652C42A892E8486
:10171000B284B6893A8A99EB2D293305A440333532
:10172000A400B385B440898D63C005025287CE867C
:10173000A28526864A85ED35F2406244D24442496C
:10174000B249224A056182800145FDB7011106CEEA
:1017500022CC26CA4AC84EC652C42A8AAE893289C9
:10176000B6843A844935A2872687CA86D2854E86B2
:101770007937F2406244D2444249B249224A056173
:101780008280AA8713D705418356A500635ED706DA
:1017900054493327E7203367D72014497376043040
:1017A000139536003315A028F19A2FA8A644337854
:1017B000A800E31C08FE0F0030038356270033C542
:1017C0000608B3C505086388B6020145984B0F00AB
:1017D000300323000700137786007320073015C5F8
:1017E000D84783C60700930747043317D028896674
:1017F000B69798C382801315F5282311A7000547D3
:101800002383E7003A85D9B701458280411106C696
:1018100022C42A84C93BA285AD37B240224441018B
:101820008280034515008280011106CE22CC26CA93
:101830004AC84EC6F32750BE1397070163580704E2
:10184000AA842E849309A5FF33B9A9009387F5FFD5
:101850003E9963E625016316B90063743501814939
:101860000149C52C3385A940B3B7A900B305B940D8
:101870009D8D6344B0028DC12685A285DD24F24092
:101880006244D2444249B2490561828037850010E2
:101890001305C5E4EFE05FEA65D1014781463716DD
:1018A0000010130606184E85CA854D356350050491
:1018B000E1B7B746002083A7065873770430139624
:1018C00037003316C028F19BAFA5C744F18DEDFD5D
:1018D0000F00300383A706580F0030032380070052
:1018E0009377870073A0073033200000B7070B40C1
:1018F000DC53E3E027FDB7060B409456E3FE36F7D2
:10190000E31CF9F67DB7411106C622C426C22A841B
:10191000AE848124229533348500A695A29563C8B0
:1019200005001937B24022449244410182807D551E
:10193000B7050080AA95F5B7411106C69307803E0A
:10194000B335F5023305F5027D3FB2404101828097
:10195000011106CE22CC26CA2A84AE84F32750BEBB
:1019600013970701635E070A4AC84EC6AD395C4546
:101970003E8783470500BE893A893A857522B307B9
:10198000A440B336F400B385B4403E87958D938769
:101990004900B3C727219C43898F814663C8D5027C
:1019A0006384B60233200000B7070B40DC5363E5C5
:1019B000970AB7060B40945663F4860A638AF408C4
:1019C00005454249B249B5A8E37EF7FC0147814687
:1019D00037160010130606182285A685853B635529
:1019E000A008B7070B40DC5363E9970037070B40AB
:1019F0001857637687006394F4003320000039356C
:101A0000B7070B40DC5363E1970A37070B401857C1
:101A10006370870A6386F40805454249B24915A0F8
:101A2000B7070B40DC5363EDB700B7060B40945685
:101A300063FEA6006384F500054521A0014511A0C1
:101A40000145F2406244D244056182800545D5BF1C
:101A500001454249B249F5B701454249B249D5B7B6
:101A600005454249B249F1BFB7070B40DC5363E17A
:101A70009702B7060B40945663F086026386F40023
:101A800005454249B24975BF01454249B24955BF72
:101A900001454249B24975B705454249B24955B772
:101AA00001454249B24971BF01454249B24951BF5E
:101AB00005454249B24971B737050B408280411153
:101AC00006C6B7370020938787619C4B99CBA94501
:101AD0003745002013050558EFF00FD6B2404101FD
:101AE000828022C4D13F2A848D452128C1460D46DB
:101AF000A2853735002013058561EFF09FA42244AD
:101B0000F9B7411106C6B787F4BFAA9793B7170074
:101B1000378600101306C6E91385F1803E95EFE085
:101B20007FC9B240410182802A875C510857BE8537
:101B30005C53E39DF5FE82805C5111A05C51E3EFA4
:101B4000C7FE11A05C516395C7001C55E3ECB7FEBE
:101B50008280411106C637050B40F937B24041017A
:101B60008280411106C62E86AA8537050B40E937CB
:101B7000B2404101828000003328A520B707014010
:101B80003348F8208327480063F4E7002322E80065
:101B90009308C5FF854763FC17078D67C29713132A
:101BA000B02823A06700B74700209387C70DB3472D
:101BB000F52003A3070063010302B74700209387C2
:101BC000C70DDC4BB3D767028507B3A7F720010029
:101BD0009387E7FFE3DE07FE1606832708003D8EA6
:101BE0001376060E8567C29790C30546637D16037C
:101BF0008967C2971316B02890C32322E800B7471D
:101C000000209387C70D3345F52014C18280E396E9
:101C1000F5F88D67C2970D4323A0670083278800DE
:101C2000858BEDDF55BF032608002D8E0D8A90C3EE
:101C3000832788003316B028F18FFDDB55BF0100E4
:101C4000411106C641670D3FB24041018280B7474E
:101C500000209387C70D3345F5200841828041114C
:101C600006C6B727B700938707B0B3D7B70237F8D0
:101C70004BD3130808883298B708AA32938808888B
:101C800063E20809B358F602138308FF1308001330
:101C9000636968081388F6FF19436363030B13082D
:101CA000F7FF636F03091182636BF60AC2063207FE
:101CB000D98E1C4163C5070CB78705406303F50E39
:101CC00039473317E028B727024098C3B737024097
:101CD00098C3B70702409C47B377F740FDFB0CC1A0
:101CE00023241501130745008D673E9793071002C3
:101CF0001CC31C41E3DF07FE54C5A1471CC3B2400F
:101D000041018280B7860010938606EC378600106A
:101D100013060653C54537850010130505F1EF106E
:101D2000700BB7860010938686F537860010130671
:101D30000653E54537850010130505F1EF109009AE
:101D4000B7860010938646F73786001013060653B1
:101D5000F14537850010130505F1EF10B007B78680
:101D60000010938606FC3786001013060653930571
:101D7000300237850010130505F1EF10B0051C4146
:101D800093F7F703E39AB7F21C4505677D17F98FC0
:101D9000E39417F35C4537770700F98FE39ED7F09C
:101DA000B9BF3D4739BF03A73181B7870D40D8C3BD
:101DB0008280B7B70D403707004098C337A701406E
:101DC000B7070002CD171CC789CDB7A70D4037074D
:101DD000000798C309EDB7A70D403707008098C3E7
:101DE0008280B7B70D403707000798C3E5B74111A8
:101DF00006C63345A5203345A5203345A5200E054D
:101E0000A3A9A180B70700016365F500FD17A3A989
:101E1000F180513FB7A70D403707004098C3B2404B
:101E200041018280411106C6AA87328537B70D402D
:101E3000B706004014C38DC7B7860D4037C707B03B
:101E40001307370DD8CE3747F84F1307D7F23D8F1A
:101E500098D2CCD29CD68145A93FB2404101828024
:101E6000B7870D4023AE0700FDB737871040B32773
:101E7000A520B3C7E720CCC33E8585471CC182801F
:101E8000011106CE22CC26CA4AC84EC6AA892E897E
:101E9000B2843684A16783D7A7DF85451165130512
:101EA00025258297AA87A2862686CA854E8582978F
:101EB000F2406244D2444249B249056182804111F4
:101EC00006C6A16783D7A7DF85458297B240410147
:101ED0008280411106C6AA866347050093E7050282
:101EE00001CA93E505032E86A94513052010493F35
:101EF000BE85D5BFB7170E4083A78782E5DF0F00E9
:101F000030038280014721A8B787031093873720C9
:101F1000BA978A070F00300323A0070005079D47E3
:101F2000E3F4E7FE8280411106C6E93FB240410179
:101F30008280378704408567938707AA1CC393076D
:101F4000A0115CC7B7A7044037B7FA0098C3B7879A
:101F50000440DC43E3DD07FE8280411106C622C453
:101F60002A8421A01C4082971104B7770010938720
:101F70004779E369F4FEB2402244410182808280C5
:101F8000411106C6377500101305C575F937B24003
:101F90004101828037270240B747EFEF9387F7B7B9
:101FA0001CC337370240B707F403D9171CC3B70760
:101FB00002409C473707F4035917B377F740E5FB16
:101FC0008280B7071150F847A1676303F70082804A
:101FD000B727115037070400F8C78280373702400F
:101FE000B7070020FD171CC3B70702409C473707FF
:101FF00000207D17B377F740E5FB8280411106C6CC
:10200000156513053525653DAA8711458297B240B0
:1020100041018280411106C61565130535254535F8
:10202000AA8705458297B24041018280411106C6C8
:10203000EFE05F88B24041018280411106C622C4B0
:1020400026C211452931B7E71B43938737E8B334DC
:10205000F502C980014429A0A685228539350504E9
:102060009547E3DB87FEB2402244924441018280DF
:10207000411106C6B707014023A207085D3DB737E7
:1020800001400547D8DFB7070140F8438547E31C07
:10209000F7FEB73701400D4798DBB7070140985F5F
:1020A0008547E31CF7FE09479546373668591306FE
:1020B00006F0BE85370505405D361547BA8637966A
:1020C0008647130606C0854537850540493EB72635
:1020D000B700938606B00146894511459536B7D6B7
:1020E000F00893860618014685451545913EB7765A
:1020F000DC02938606C00146814521459136B776BC
:10210000DC02938606C0014681452545153EB7D6BB
:10211000F008938606180146814519451536B7D64D
:10212000F00893860618014681451D45113E31375A
:10213000B240410182806375D600B2952380A5002C
:102140008280828009C9411106C69C41CC41829798
:10215000B240410182808280AA86014521A8334590
:10216000A520930717009CC2834707003325F5205D
:10217000130505FD984283470700938707FD93F7F2
:10218000F70F2546E37DF6FC8280797106D622D4CE
:1021900026D24AD04ECE52CC56CA5AC85EC662C467
:1021A000AA842E89B28BB689BA8A3E84428B13FCEC
:1021B000280063110C0493F81800639D080266C29E
:1021C0003E8A11A8930C1600CE86CA85130500021C
:1021D0008294050A6686E3676AFF924C21A87D1403
:1021E000B3878A00130A1600CE86CA8503C5070086
:1021F000829452866DF463170C023285B2502254D9
:1022000092540259F249624AD24A424BB24B224C92
:102210004561828013041600CE86CA85130500022C
:1022200082942286B3077641E3E667FFF9B741114E
:1022300006C6C28FC68E424F5248E24813F32800AA
:10224000631F03046305080213F31800630103020C
:1022500063960F0013F3C800630B03007D1801A8F9
:102260003303F700130E00032300C301850713B3E4
:10227000070263F4E701E31503FE13F3180063009C
:10228000030213B3070263FC0701630A030033036D
:10229000F700130E00032300C3018507F9BF13F3F2
:1022A0000801630D030813F30840631C0304B1CB5A
:1022B0003383E74113331300338E0741133E1E006F
:1022C0003363C301630F0302138FF7FF3333E0015E
:1022D000138E0EFF133E1E003373C301630203020D
:1022E000F91713F30802631B03067D4E6368FE06AD
:1022F0003303F700130E80072300C30185072DA0C9
:10230000FA874143E38F6EFCF91E93BE1E0013B3A0
:102310000702B3FE6E0063890E003303F700130E4D
:1023200020062300C30185077D436365F302330361
:10233000F700130E00032300C30185077D43636B81
:10234000F300638D0F023303F700130ED002230056
:10235000C30185071D3DB24041018280414EE39596
:10236000CEFBE30303FA7D43E360F3FA3303F700A4
:10237000130E80052300C30185077DB713F34800C2
:10238000630A03003303F700130EB0022300C301F6
:102390008507C9B713F38800E30E03FA3303F70088
:1023A000130E00022300C30185076DB7397106DEE5
:1023B000BE8F164F19E3137FFFFE937E0F4063839A
:1023C0000E0425C3814E3DA813730F026308030456
:1023D0001303100472931373F30F59131373F30F52
:1023E00093871E00138E0E03B30E2E0023806EFE05
:1023F000335E070313B30702636607036304030234
:10240000BE8E7287337E0703137EFE0F2543E36D76
:10241000C3FB130E0E031373FE0FD9B7130310067D
:1024200055BFBA877AC406473AC246C0C2887E887A
:102430001808F53BF25021618280197186D6A2D42A
:10244000A6D2CAD0CECED2CCD6CADAC8DEC6E2C4B4
:10245000E6C2EAC06EDEAA8B2E8CB28C368D3A892B
:10246000BE84C28DC6DEC68A8A493A4BD98F99E3AB
:10247000137BFBFE13740B401DCCB3679900C9C7D7
:10248000014415A893770B0291CB93071004AA97E8
:1024900093F7F70FD91793F7F70F3DA89307100697
:1024A000FDB7814793F7F70F13370A02B9CF31CF42
:1024B00052842A89AE845686CE864A85A68597F0B0
:1024C000FF0FE780009A1375F50FA547E3ECA7FA15
:1024D000130505039377F50F130A1400130704037C
:1024E000330427002300F4FE5686CE864A85A6854F
:1024F00097E0FF0FE78000608547E3E434FBE39358
:1025000099FAE37159FB71BF014A5AC4AA473EC206
:102510009A473EC0D6886E88D2871808EA866686B3
:10252000E2855E852933B650265496540659F649FD
:10253000664AD64A464BB64B264C964C064DF25D43
:1025400009618280597186D6A2D4A6D2CAD0CECED5
:102550002A842ECA32CE36CCBA893AD03E893ED2AF
:1025600042D4C6844E86CA864E85CA85971000100E
:10257000E78020CC631F052CB797001003A6079FA8
:1025800083A6479F4E85CA8597000010E78020C22A
:102590006341A02CB797001003A6879F83A6C79F0F
:1025A0004E85CA8597000010E780E0CD6343052A79
:1025B000D2CCD6CADAC8DEC6E2C4E6C26EDE0146B6
:1025C0008146025992594A85CE8597000010E780CE
:1025D00080CB6344052A8257BE8B9257BE8DC65767
:1025E00093F707403ED699E399473ED4DE8A6E8B37
:1025F000B3E7BB0163880728EAC013D54D01137503
:10260000F57FB7071000FD17B3F7FD003707F03F60
:1026100033E9E700130515C097100010E780A0D03C
:10262000B797001003A607A083A647A09700001045
:10263000E78040D3B797001003A687A083A6C7A062
:1026400097F0FF0FE78080BD2A8AAE89B797001008
:1026500003A607A183A647A15E85CA85970000103F
:10266000E780802AB797001003A687A183A6C7A199
:1026700097000010E78000CF2A86AE865285CE856F
:1026800097F0FF0FE78080B997100010E78020BE19
:102690002A8C97100010E78000C92A8AAE89B79764
:1026A000001003A607A283A647A297000010E780A8
:1026B00060CBB797001003A687A283A6C7A297F0A6
:1026C000FF0FE780A0B597100010E78040BA2A8975
:1026D000B797001003A607A383A647A35285CE850C
:1026E00097000010E78000C82A8AAE894A859710B3
:1026F0000010E78040C3B797001003A687A383A606
:10270000C7A397000010E780E0C52A86AE865285F1
:10271000CE8597000010E780201F2A8AAE892A867E
:10272000AE8697000010E780E0C32A8BAE8A1309BB
:10273000F93F52095286CE865285CE8597F0FF0F1B
:10274000E780C0AD2A8DAE8C5286CE86B79700103A
:1027500003A507A483A547A497000010E780C01A2B
:102760002A8AAE89B797001003A687A483A6C7A4B8
:102770005A85D68597F0FF0FE780403AB79700104B
:1027800003A607A583A647A597F0FF0FE78000A93A
:102790002A86AE865A85D68597F0FF0FE7800038E7
:1027A000B797001003A687A583A6C7A597F0FF0FCC
:1027B000E780C0A62A86AE865A85D68597F0FF0F99
:1027C000E780C0352A86AE865285CE8597F0FF0F0A
:1027D000E780C0A42A86AE866A85E68597F0FF0F5B
:1027E000E780C033B797001003A607A683A647A6C5
:1027F00097F0FF0FE78080A201473A86CA869700CC
:102800000010E78020B62A89AE89AA8A2E8B5E86C0
:10281000EE8697000010E78080996353A00293072B
:10282000FCFF3E8CB797001003A607A583A647A51B
:102830004A85CE8597F0FF0FE780402EAA8A2E8B1F
:1028400093073C061307600C636CF7081149064DAB
:1028500025A8C6573EC0A6882258025692563287EF
:10286000B687E2467246D24522855D22B65026548E
:1028700096540659F64965618280CA8B9397F96927
:10288000BE8DB1BB014C114946579317470163D325
:102890000706B3E76A018DCFB797001003A687A696
:1028A00083A6C7A65E85EE8597000010E78020907E
:1028B00063410510B797001003A607A783A647A793
:1028C0005E85EE8597000010E780E09B6353050E60
:1028D000A257635AFC00B3878741FD173ED429A055
:1028E0001549064D55B702D4C65793E70740BED8E1
:1028F0000149014C6377990CB3872441BE89C657BF
:10290000898BBE8C81C7630309008149630C0C006D
:102910005686DA865E85EE8597F0FF0FE780002009
:10292000AA8BAE8D01468146025792573A85BE85E5
:1029300097000010E780209563470508C6579397D6
:10294000B7483EC0CE8822585E87EE87E246724680
:10295000D245228575286305090AC65793F70702F1
:10296000BDC79307500413071500BA8A624AD2867E
:102970002A86D249CE853E85029433078041954709
:102980003EC27D194AC0814829489357FC013367EC
:10299000EC0AD2865686CE852285EFF03FA163945D
:1029A0000C04664AD64A464BB64B264C964CF25D12
:1029B00075BDA257A1D3B25795DFA257FD173ED4DC
:1029C00015BF81492DBF9397FD69BE8D85BF9307C4
:1029D000500651BF13091500E2462A86D245130559
:1029E000000202944A85F247B307F540E3E497FEFC
:1029F000664AD64A464BB64B264C964CF25DBDB560
:102A0000664AD64A464BB64B264C964CF25DB9BD4B
:102A1000197186DEA6DAE2CCE6CAEAC8EEC6AA8D4D
:102A20002EC832CA36CC3A8CBE8CC284468D3A86C9
:102A3000BE863A85BE8597000010E780807F55E10D
:102A4000B797001003A6879F83A6C79F6285E68578
:102A500097000010E78020836343050AB7970010B2
:102A600003A6079F83A6479F6285E68597F0FF0F21
:102A7000E780E0736343A00AA2DCCAD8B7970010CE
:102A800003A687A783A6C7A76285E68597F0FF0FF1
:102A9000E780E071634AA00AB797001003A607A871
:102AA00083A647A86285E68597F0FF0FE780A07DA3
:102AB000634C0508CED6D2D4D6D2DAD0DECE0146CB
:102AC00081466285E68597F0FF0FE780C07B634C07
:102AD000050802CE8A4793F70740638B071C014421
:102AE00055A88A486A888D473787001013078702E0
:102AF000E2465246C2456E85EFF02FE915A68A4898
:102B00006A889147378700101307C702E24652468A
:102B1000C2456E85EFF06FE721A68A47918B99CF6A
:102B2000378700101307C70191478A486A88E24631
:102B30005246C2456E85EFF04FE5DDA437870010A1
:102B4000130747028D47D5B78A473EC0EA882688D3
:102B50006287E687E2465246C2456E85EFF09F9E49
:102B60006654465975AC6286E686014581459700F4
:102B70000010E78060D92A8CAE8C85473ECE99BF85
:102B8000930704031808BA97130700032380E7FE8E
:102B9000FD1405049337040213B7A400134717006C
:102BA00091C379FF6285E68597000010E780206C6D
:102BB0002A8997000010E78000772A86AE86628512
:102BC000E68597000010E78020D4B7870010938730
:102BD0000759B3E7F42003A847009C433E8AC28A02
:102BE0003E86C28697F0FF0FE780C077AA8B2E8BB8
:102BF00097000010E780C06DAA8997000010E78059
:102C0000007B2A86AE865E85DA8597000010E78015
:102C1000A0CF2A8BAE8BB797001003A687A283A6FE
:102C2000C7A297F0FF0FE78080586355A008850979
:102C30004E8597000010E78080772A86AE86528501
:102C4000D68597F0FF0FE78000646344A000050974
:102C50008149D1E44A8597000010E780C06C2A863C
:102C6000AE866285E68597000010E780E0C9AA89F4
:102C7000AE84B797001003A687A283A6C7A297F0D9
:102C8000FF0FE7804060634A050CB797001003A66A
:102C900087A283A6C7A24E85A68597F0FF0FE7807F
:102CA0000051634CA00A93771900C5CB050975A0A4
:102CB000994435B5B797001003A687A283A6C7A28B
:102CC0005A85DE8597F0FF0FE780E05BE34305F868
:102CD0006385090093F71900ADDF85099DBFFD47A6
:102CE00063EB8704FD14B7D7CCCC9387D7CCB3B7AD
:102CF000F9028D83BE86B3C7F7208607B387F940F4
:102D00001307140093870703130604030C08330406
:102D1000B6002300F4FEA54763F33709B6893A8469
:102D20007DBF13070403140836979306000323009E
:102D3000D7FEBE840504FD4763E587009387F4FF53
:102D4000EDF0FD4763EB8700930704031808BA977B
:102D50001307E0022380E7FE0504FD4763E48704D0
:102D6000B767666693877766B317F9028987135743
:102D7000F941998FBE86B3C7F7208607B307F9409C
:102D80001307140093870703130604030C08330486
:102D9000B6002300F4FE368989C63A847DBF3A84A2
:102DA00059BF3A848A47898B8DEF8A47858B95CBAB
:102DB00063040D02F24781E78A47B18B91CF9307F5
:102DC000FDFF3E8D11A8930704031808BA97130757
:102DD00000032380E7FE0504933704026373A40114
:102DE000FDF3FD4763ED8700F247B9C39307040382
:102DF0001808BA971307D0022380E7FE05048A4813
:102E00006A88A2871810E2465246C2456E85EFF0E6
:102E1000CFB766544659B659265A965A065BF64BB2
:102E2000F650D654664CD64C464DB64D096182805C
:102E30008A47918B99CB930704031808BA97130715
:102E4000B0022380E7FE05045DBF8A47A18BC5DB86
:102E5000930704031808BA97130700022380E7FEBC
:102E6000050471BF1D7186CEA2CCA6CACAC8CEC643
:102E7000D2C4D6C2DAC02A8AAE89328936CE3ACCDA
:102E80006384056A8144F24703C507006303056A4A
:102E900013075002630DE50013841400CA862686CA
:102EA000CE85029AF24785073ECEA284E9BF850708
:102EB0003ECE014405A8930600026302D70693069E
:102EC00030026318D7001364040185073ECE854A9B
:102ED00001A8814A31A01364240085073ECE854AAB
:102EE00063870A04F24703C707009306B002630230
:102EF000D702E3F2E6FC9306D002E30ED7FC93067A
:102F000000036314D7021364140085073ECE854A7C
:102F1000C1BF1364440085073ECE854AD1B7136410
:102F2000840085073ECE854A65BF814A55BFF2477A
:102F300003C70700930707FD93F7F70FA54663F450
:102F4000F6049307A0026305F704568BF24783C685
:102F500007001307E002638EE604F24703C7070089
:102F60009306C0066307D70A63F8E608930640078E
:102F70006305D70E9306A0076315D70E13640410DC
:102F800085073ECEF9A86808EFF00F9D2A8B7DBF1C
:102F9000E247138747003ACC03AB070063460B00B8
:102FA000F24785073ECE5DB713642400330B6041C2
:102FB000C5BF13640440138717003ACE03C7170038
:102FC000930707FD93F7F70FA54663F2F602930701
:102FD000A002E314F7F8E247138747003ACC83AA2C
:102FE0000700B3EA0A0AF24785073ECEBDB7680874
:102FF000EFF08F96AA8A95B793068006630DD702E5
:103000009306A006631FD7041364042085073ECEF1
:1030100089A813660410138717003ACE83C61700D9
:103020001307C0066384E600328425A813640430C5
:1030300089073ECE3DA013660408138717003ACED9
:1030400083C61700130780066384E600328411A844
:103050001364040C89073ECE29A01364041085076D
:103060003ECEF24703C50700930750066305F50AF5
:1030700063E6A712930760046305F51663FFA702D2
:1030800093073006631BF5065EDE09886300043A89
:10309000854AE247138747003ACC938B1400CA86CF
:1030A0002686CE8503C50700029A631D0438F247C1
:1030B00085073ECEDE84F25BF9B393075002631FAF
:1030C000F50013841400CA862686CE8513055002A7
:1030D000029AF24785073ECEA28475B39307500447
:1030E000630BF50213841400CA862686CE85029AE5
:1030F000F24785073ECEA28479B363E8A70693071B
:1031000080056308F506930720066304F506930718
:103110007004E319F5FC930795FB93B717001307A9
:1031200095F9133717005D8F19C31314B4281307CB
:10313000B5FB13371700D98F99C313640402E24714
:103140009D07E19B138787003ACC9843DC4322C05C
:10315000DA885688CA862686CE855285EFF08FBEDD
:10316000AA84F24785073ECE39BB93074006E31B8E
:10317000F5F6930785F893B71700130785FA133709
:103180001700D98FCDEF9307F006630BF512930765
:1031900020066309F5123D9829485DA093070007B2
:1031A000630CF53463F5A70293073007631EF50639
:1031B0005EDE62DC66DA6ED6E247138747003ACC01
:1031C00003AC0700639B0A2A7D57E28759A4930743
:1031D0007006E302F5F463E0A70493076006E313C7
:1031E000F5F0930760046301F522E2479D07E19B38
:1031F000138787003ACC9843DC4322C0DA8856888C
:10320000CA862686CE855285EFF09F80AA84F24733
:1032100085073ECE8DB993079006E30CF5F493072E
:10322000F006E308F5F47DBDE36EF5EA9307500779
:10323000E301F5F493078007E30DF5F265B5414826
:10324000930780056302F508930775F9B337F0001B
:103250001307C5F93337E000F98F91C34D98937781
:10326000044091C37998930775F993B71700130732
:10327000C5F913371700D98FF5C793770420A1EB51
:1032800093770410D1EB93770404CDCFE2471387F3
:1032900047003ACC03C70700B306E04022C25AC039
:1032A000D6889357F7013367D70ACA862686CE8514
:1032B0005285EFF0AF8FAA84F24785073ECEE1B684
:1032C0002148BDBF0948ADBF13640402B5BFE24742
:1032D0009D07E19B138787003ACC9843CC4393D654
:1032E000F541B3C7E60033C6B6003387D740B3B75E
:1032F000E700B306D64022C65AC456C202C0C288EE
:1033000013D8F501B387F640CA862686CE85528546
:10331000EFF0AF92AA844DB7E247138747003ACC4B
:103320009843B306E04022C25AC0D6889357F701AB
:103330003367D70ACA862686CE855285EFF00F8777
:10334000AA849DBF9377040881CBE2471387470087
:103350003ACC0397070089B7E247138747003ACC76
:1033600098431DBF937704208DEB93770410A1EF52
:1033700093770404B5CBE247138747003ACC03C7E1
:10338000070022C25AC0D6888147CA862686CE85C3
:103390005285EFF0AF81AA8405B7E2479D07E19B14
:1033A000138787003ACC9843DC4322C65AC456C2DE
:1033B00002C0C2880148CA862686CE855285EFF0B3
:1033C000CF87AA84D5BDE247138747003ACC9843FC
:1033D00022C25AC0D6888147CA862686CE855285A3
:1033E000EFE0DFFCAA84C9BD9377040881CBE247F4
:1033F000138747003ACC03D7070061B7E24713872A
:1034000047003ACC9843B5BF13640402F9BB938BD1
:103410001400CA862686CE8513050002029AD68736
:10342000DE84938A1700E3E467FFA5B18547D5BF23
:1034300093841B00CA865E86CE8513050002029A1D
:10344000A28AA68B13841A00E3E46AFF8DB1850774
:10345000368783C6070081C69306F7FF6DFBB38BE3
:103460008741937C044063840C00B3DB5B0B937750
:103470002400BE8DA1E36AD831A85687B9B39387DB
:1034800014003E8DCA862686CE8513050002029A58
:10349000A28BEA8413841B00E3E36BFFA28B425DE3
:1034A00011A8BE8A050C13841400CA862686CE8510
:1034B000029AA28403450C0019C5E3850CFE93878C
:1034C000FAFFE3900AFE63940D02F24785073ECEB1
:1034D000F25B625CD25CB25D7DB2938A1400CA86F4
:1034E0002686CE8513050002029AA28BD684138409
:1034F0001B00E3E46BFFD1BF13641402E2471387A0
:1035000047003ACC984322C2A1473EC0D6884148E2
:103510008147CA862686CE855285EFE03FE9AA8498
:10352000F24785073ECE85B2372A0010130A2A14C7
:1035300091BA63E324031306F9FFCA86CE850145D9
:10354000029A2685F6406644D6444649B649264A3C
:10355000964A064B256182802686C5B7397106CE0C
:1035600032D436D63AD83EDA42DC46DE38103AC695
:10357000AE867D56AA853725001013056513EFF03A
:103580007F8EF24021618280011106CE36872AC4E7
:103590002EC6B2867D562C00372500101305451423
:1035A000EFF05F8CF240056182800D45731025BEFF
:1035B0007D15E35D05FE0565130505807310453037
:1035C000736004307310003482800290FDBF41119B
:1035D00006C6E53F411106C62E88B68519CEB287CC
:1035E0003787001013074703C2862A8637850010E5
:1035F00013054504B92E0545C93F37870010130749
:10360000079CBA87D5B7411106C622C4F32750BE1E
:1036100013970701634307000290EFE07F9637742A
:1036200000101304447921A01C4082971104B7773D
:1036300000109387077AE369F4FEB2402244410107
:103640008280411106C62E871C41B2853A85829739
:10365000B24041018280011106CE26CA4AC84EC638
:10366000AA89AE8432898347550189C722CC014497
:10367000014525A01C41B2852685829741A083C7BC
:10368000490105A883A7090089453795001013054E
:1036900085A88297130514000504635D2403E35095
:1036A00080FE9307F4FFA69783C70700CD1793B753
:1036B000170033878400834607002947E39EE6FC12
:1036C000E1FFE35185FC83A70900B305A4402695DB
:1036D00082974DBF6358250183A70900B305A94010
:1036E00026958297635220037D19CA9483C70400EC
:1036F000CD1793B71700238AF9006244F240D244F1
:103700004249B249056182806244CDBF1C419DCFD0
:10371000411106C622C426C2AA8403A4B18139A0DD
:1037200090409385440022853D37004809C81C40DD
:10373000EDDF83A77181EDD7E39987FED5B723A08D
:103740000400B240224492444101828082804111AF
:1037500006C622C426C2AA842E8498419307000874
:10376000630EF7001C401387170018C03E94230215
:103770009400B24022449244410182802E857937E0
:10378000D5B7411106C6EFE0CFBCB7470F0093870E
:103790000724AA9733B6A7002E96634E0600BE856F
:1037A000374500201305458297D0FF0FE780A0958D
:1037B000B24041018280FD57370600803E96C5B772
:1037C000411106C6374500201305458297D0FF0FEB
:1037D000E780C09BB24041018280797106D622D435
:1037E00026D24AD04ECE52CC56CAAA89AE84328A4C
:1037F0003684413FAA8AFD57638AF40009CC3739E1
:1038000000101309696503A4B18121A84E85EF302A
:103810007063AA84E5B73739001013092964E5B746
:1038200000481DC41C40EDDF83A7718199C3E39953
:1038300087FE2686CE8522850299E3030AFEA947E4
:10384000A307F10005469305F10022850299C9BF3F
:10385000639C0A002685B250225492540259F249C0
:10386000624AD24A45618280A13FEDB783A7B18108
:103870001387B18121A0138707019C4B91CB1C4377
:10388000E39BA7FE81E91C491CC323280500828015
:1038900091C108C38280411106C622C403A4B1812C
:1038A00011A0004809C45C40EDDF8297DDBFB24043
:1038B000224441018280411106C61529B2404101CE
:1038C0008280011106CE22CC2A84A307A10085465E
:1038D0000146B6851305F10009372285F24062449E
:1038E00005618280411106C622C426C2AA84EF3037
:1038F00070552A8485463686AA852685F93D613F1E
:103900002285B2402244924441018280717106D7DF
:1039100022D526D34AD14ECFAA892E899D35AA8495
:1039200002C66000CA864E86A28537350010130590
:10393000E57499392A892285D13BB13F89E84A85C6
:10394000BA502A549A540A59FA494D6182808D3DE1
:10395000FDB7397106CE2ED232D436D63AD83EDAF9
:1039600042DC46DE4C102EC65537F2402161828083
:103970008280A38F0180828003C755009307F00FD8
:103980006313F70283C765008DE303C7750085479E
:10399000631FF700A14763FEC70003C72500A38F7D
:1039A000E180254582800145828001458280014574
:1039B0008280014582800545828085476396F506B1
:1039C0000347460083475600A207D98F03C7F181FA
:1039D0006384E70001458280411106C683471600D3
:1039E0006389B70009476389E7020145B240410195
:1039F00082808345260083473600A207DD8D93F73A
:103A0000071089CB13D5950013D6954893F5F50784
:103A1000EFE02FCC7D55CDBF130640068145014513
:103A2000EFE04FC00545D9B70545828037850010C6
:103A30001305856A828005476390E504B287834653
:103A40001600639DB60283464600034756002207D0
:103A5000558F9D466304D70001458280411106C6FB
:103A60009306600A3786001013060660BE85EF10C5
:103A70009047B240410182800545828001458280A5
:103A800085472300F500378500101305055E828009
:103A900003C7050083C71500A207D98F03C72500F8
:103AA00042075D8F83C73500E207D98F1307004BAC
:103AB0006383E7008280411106C6014681457D553A
:103AC000EFE02FC1A3ADA182A3ABB18282804111EF
:103AD00006C6EFE00F88B7470F0093870724AA9721
:103AE00033B6A7002E96634B0602BE851385F1837D
:103AF00097C0FF0FE780206119CD81457D55EF10FC
:103B000010080145EF20C0046DF91385F18397C0BB
:103B1000FF0FE780A067B24041018280FD57370662
:103B200000803E96D9B7411106C603C5B182EFC0E9
:103B30003FF8B24041018280411106C622C426C22C
:103B400083A7F182B9CB7377043093963700B3160D
:103B5000D028F19B2FA6D744758E6DFE0F00300341
:103B60009387F182D8C3238601829C430F003003E0
:103B700023800700218B732007300144814403C553
:103B8000B182EFC07FEF11ED014481442285A6850B
:103B9000B24022449244410182801304803E814419
:103BA000F9BF03C5B182EFC0BFF0CDB7011106CE9A
:103BB00022CC26CA4AC84EC652C456C22A892E846E
:103BC000B284B6893A8ABE8AEFD0BFF83308A4001F
:103BD00033348800B387B400C2853306F4006341F0
:103BE0000602D6875287CE864A85EFD05FB1F24073
:103BF0006244D2444249B249224A924A05618280D3
:103C0000FD55370600802E96E9BF011106CE22CC65
:103C100026CA4AC84EC652C42A8AAE893289B68498
:103C20003A84EFD05F9CA2872687CA86D2854E86CB
:103C3000B53FF2406244D2444249B249224A05614A
:103C40008280411106C681451385F18397C0FF0F1D
:103C5000E780403B39E583A7F182A9C3737704303D
:103C600093963700B316D028F19B2FA6D744758EB4
:103C70006DFE0F0030039387F182D8C383C6C182E3
:103C800093F6F60F85452386B1829C430F003003DF
:103C900023800700218B7320073085CEB24041017D
:103CA000828022C481457D55EF10606D0145EF1083
:103CB00010632A841385F18397C0FF0FE780004DBE
:103CC0001DC083A7B18395C303A571838297224446
:103CD000F1B72E8737460010130686B31305803ED2
:103CE0008145253765BF224455BF224445BF411158
:103CF00006C622C4B70700D08043EFD0DF8EEFD0D6
:103D00005FB263108508B797001083C787AA814503
:103D10000145EF20D02E83A7F183C1C70545EFD021
:103D2000AFAEA385A182B7450010938525C4137556
:103D3000F50FEFC0FFDB854503C5B182EFC01FD68D
:103D40003945EFC05FD92A8435C10545EFC07FB43E
:103D5000AA851385F182EFD06FB90146B7450010EF
:103D6000938565B23945EFC03FE085453735002082
:103D70001305857EEFF09FAF2285B24022444101BA
:103D80008280B78600109386460737860010130698
:103D9000866D9305600C378500101305C507EFF09D
:103DA0007F831385F183EFD00FAA8DBF9387F182B4
:103DB00023A0070023A207000547814637460010CD
:103DC000130686B31305803E814581351345F5FF03
:103DD0001354F501E35205FA49BF411106C60145E6
:103DE000EF10B04BB24041018280411106C622C49F
:103DF00026C22A84AE84D53741C10145EF10304E2A
:103E00003DCDEFD01FD5B7470F0093870724AA9762
:103E100033B6A7002E9663420604BE851385F18350
:103E200097C0FF0FE780202E31CD453F09C50145E2
:103E3000EF10F04A05E981457D55EF104054F557E4
:103E40003E841385F18397C0FF0FE78020342285DD
:103E5000B2402244924441018280FD5737060080DF
:103E60003E9665BF2686A2850145EF10B0492A849B
:103E700069F9F5573E84F1B7F5573E84C9BFF55748
:103E80003E84F1B7F5573E84D9B7011106CE26CA54
:103E90004EC6AA89AE84EFD0DFCBB7470F00938719
:103EA0000724AA9733B6A7002E96634F0600BE8557
:103EB0001385F18397C0FF0FE780E02419E9F240F2
:103EC000D244B24905618280FD57370600803E9694
:103ED000F9BF21375DE181460147A3A1D182A3A3A8
:103EE000E1821385F18397C0FF0FE780202AC1BFCD
:103EF00081457D55EF10A0480145EF107045F13D1B
:103F000041C50145EF10705B31C1635C9406338994
:103F100084400145EF10705A634325014A8569D9F1
:103F20002A86B38589000145EF10F0522A89814520
:103F30007D55EF10C0440145EF1090414A94EFD0F9
:103F40005FC1A3A1A182A3A3B182C1B7EFD07FC0FB
:103F500003A7318283A67182B7A707009387071250
:103F6000BA9733B7E70036976363B702E39FE5F884
:103F7000E3FDA7F862444249ADB722CC4AC80144E8
:103F800069B762444249B1BF6244424999BF624441
:103F9000424981BF378500101305457582803785FA
:103FA0000010130505708280411106C622C42A84C0
:103FB000B747002083C747569DCB29E0B74700206D
:103FC00093874710130790402391E70085478507A3
:103FD0008607B3C70708374500201305451093E748
:103FE00007302310F500B240224441018280C545CC
:103FF00037450020130545567D20C1B7954763EE30
:104000008702B78700109387876E3344F4201040EF
:1040100081474947E36DF7FA3307F6008346070007
:10402000DDD68507374700201307471033A7E72061
:104030002310D70093F7F70FE9BF01456DB739712A
:1040400006DE156513057534EFD07FE7AA870546B0
:10405000A5456800829791476314F500014735A88C
:10406000B78600109386C610378600101306867830
:104070009305F0023785001013054511EFF08FD539
:10408000BD47998F938707038A9783C6C7FD938798
:104090007184BA972380D70005079D47E3D2E7FED6
:1040A000F2502161828099C1014715A8411106C6CD
:1040B000B78600109386461637860010130686765C
:1040C0009305B0033785001013054511EFF08FD02D
:1040D00093877703B306E5002380F60005079387EF
:1040E000F5FF6379F702BD4763E6E70293561700D1
:1040F00093877184B69783C707000546B376E64079
:104100008A06B3D7D740BD8BA546E3C3F6FC938799
:104110000703C9B73A952300050082809376F50717
:10412000935775003747002033A8F6201608130769
:10413000C71242972301A70013C51700A300A700C9
:10414000A3010700231CB700A30DC700B9EF139606
:104150003600110637071050130707083A963747FD
:104160000020B3A5F62096051307C7122E9710C797
:104170003747002033A6F62016061307C7123297DA
:104180001847232007009DEE37470020B3A7F620ED
:10419000939657009307C712B69723A207003707D5
:1041A000105013070710D8C7828037061050130627
:1041B000060833E6C620374700201307C712429788
:1041C00010C77DB79DE31387F6FF0E07110737066B
:1041D00010502106329737460020B3A6F6209606E7
:1041E0009307C612B697D8C382801386F6FF3707A7
:1041F000105021073366E62037470020B3A7F6208A
:10420000939657009307C712B697D0C382808357FF
:1042100085019387F7039983939667000346B50159
:104220000947630DE60083A731855CC5B697A3A94E
:10423000F1843717105063F6E70082809396770079
:10424000DDB7411106C6B78600109386C6163786BD
:1042500000101306467D93052005378500101305D1
:10426000051BEFF02FB7011106CE22CC26CA4AC893
:104270004EC69374F50713547500B3A784209607B0
:10428000374700201307C712BA97BE89413D81E81E
:10429000F2406244D2444249B2490561828083D5EA
:1042A00089014E85AD3783C7B901EA0703A7C90065
:1042B000B7061050358FD98F9397F72903A7490078
:1042C0001CC3F9B7411106C69377F5071D81B3A743
:1042D000A7209607374500201305C5123E95792C77
:1042E000B24041018280411106C601E98545394548
:1042F000EFC0CFFAB24041018280B78600109386AA
:104300000622378600101306467C93057019378500
:1043100000101305051BEFF0EFAB411106C609E9CC
:104320000146814513050008713FB240410182807A
:10433000B786001093860622378600101306467B48
:104340009305101A378500101305051BEFF08FA891
:10435000B72711504167F8C78280411106C622C4B1
:1043600026C22DE92A84E12AB7041150B147BCDCEA
:104370001306F00FB70500209385A52E3945EFC031
:10438000AFFE130600048145374500201305C51212
:10439000EF3040120146930500040145E93501461E
:1043A00093050004130500087D3D97C0FF0FE780CB
:1043B00060E48547BCC0B7070020FCC4F567C107AF
:1043C00023A8F408228569370545B2402244924467
:1043D00041018280B786001093860622378600103E
:1043E0001306867E93053016378500101305051BCE
:1043F000EFF04F9EA387B18499C5B72711503707B7
:10440000020023A8E708828083C7050013F7F7019D
:1044100009EB93F7070691E703C715009547630378
:10442000F700828003C72500B707115098C3828028
:1044300003C635000D8A05476304E602411106C62E
:10444000AE8703C7450083C55500A205D98D93F5F6
:10445000F57F03C52700013D0545B240410182803B
:1044600001458280411106C697C0FF0FE78080D8C2
:10447000B24041018280411106C609E92E85B2850C
:10448000368689350545B24041018280B7860010E5
:1044900093860622378600101306467A930540203D
:1044A000378500101305051BEFF0CF92411106C6AA
:1044B00013F5F50701E993D7750085EB0947B72791
:1044C0001150B8D79D813325B52016051316B02895
:1044D0008145B74700209387C7123E9597C0FF0FCD
:1044E000E7800022B240410182800547C9BF13F531
:1044F000F50711E18280411106C69D813325B52063
:104500001605B74700209387C7123E95A301050003
:104510000146FD759385F57F97C0FF0FE780401E2C
:10452000B2404101828001A803C705002300E500D5
:10453000850505053E869307F6FF7DF682804111CD
:1045400006C6B7070010372702401CC337370240A2
:104550001CC3B70702409C4737070010B377F740EA
:10456000EDFB0566814537051050EF20B074B707A5
:1045700011502547F8DBB24041018280411106C647
:1045800022C426C24AC02A84AE8432898347A50148
:10459000A1E7231A2401231B04008547230DF400FF
:1045A00004C8228597C0FF0FE780000019C5B72710
:1045B00011503707020023A8E708228597C0FF0F94
:1045C000E780400105C98547230EF400B24022442C
:1045D00092440249410182808345250037850010BD
:1045E00013050531EFF0EFB6228597C0FF0FE78086
:1045F000E00F45B7228597C0FF0FE780E015F9B7B8
:10460000411106C622C426C2AA84014431A8998F4A
:104610009607379700101307C78BBA97DC47268594
:10462000829705041374F40F03C7B186A28793061B
:10463000170063C88602E37CE4FC83A7F1861317A6
:104640005400BA97E1FF13065022B79500109385E6
:1046500085883785001013058534EFF08FAF029001
:104660003DA8130640058145374500201305C5CFF9
:10467000EF20506437470020130707D0FD571CC3B5
:104680005CC31CC75CC737470020130707D11CC396
:104690005CC31CC75CC71CCB5CCB1CCF5CCFB240DF
:1046A0002244924441018280411106C6913FEF109D
:1046B0004012B24041018280411106C622C426C286
:1046C0004AC02A892E84B284C849EF1060125C481F
:1046D000268685454A858297B24022449244024903
:1046E00041018280797106D65AC82A8B1385F5FF5D
:1046F0001375F50FEFF0BF8A01C966C2834C150030
:1047000089476385FC02924C1306603DB795001003
:104710009385C5853785001013058534EFF06FA3A9
:1047200002900145B250424B4561828022D426D28C
:104730004AD04ECE52CC56CA5EC662C403477500FC
:10474000B74700209387C7CF13565748120683C632
:104750000700BD9AD18E2380D700135767481607EC
:1047600093F6F60F93F6F6FD558F2380E700130AB4
:1047700095000347250083473500A207D98FB30B67
:10478000F50095A2034C3A0083470A003E9AA5A281
:104790001306103FB79500109385C5853785001027
:1047A00013058534EFF0EF9A02900145225492549C
:1047B0000259F249624AD24AB24B224C924C9DB7FE
:1047C00033848A401604B79700109387C78B3E94B2
:1047D0001C484E86D2855A8582972A899337950040
:1047E00093C7170033B7A90013471700F98FB9EB28
:1047F000850493F4F40F03C4B186A68A93071400CA
:1048000063CE970CE3FE84FA03A4F18693975400D9
:104810003E945DFC1306A03FB79500109385C585B7
:104820003785001013058534EFF0AF9202900145F3
:10483000225492540259F249624AD24AB24B224C53
:10484000924CCDB585476300FC04814663FE860724
:1048500083472A00B69793F7F70F374700201307CF
:10486000C7CF3E97034647001307F00F6316E602D3
:10487000374700201307C7CFBA97238297008506D2
:1048800093F6F60FE1B71848B76700109387C7EFA4
:10489000E31DF7FA668C55BF13069041B7950010DB
:1048A0009385C5853785001013058534EFF06F8A31
:1048B00002900145225492540259F249624AD24A66
:1048C000B24B224C924CB9BDA6864A86D28537455A
:1048D0000020130505D1EF2080194A9A83C7B186BD
:1048E000850763C55703637B7A0503471A00AD4705
:1048F000E30AF7E8054C03471A009147E31AF7E883
:10490000B3894B41B3C909088144F5B51306804208
:10491000B79500109385C58537850010130585343C
:10492000EFF02F8302900145225492540259F2492C
:10493000624AD24AB24B224C924CEDB30545225406
:1049400092540259F249624AD24AB24B224C924CDA
:10495000D1BB8280828001458280014582804111E5
:1049600006C622C426C2AA842E8403C5250083C796
:104970003500A207A18319476388E70E6367F70232
:104980000947638AE7060D47638FE70A0547639C7B
:10499000E700EFF02FE02A8621C1C946A2852685CF
:1049A000EF0070548DA80145BDA01D476385E70445
:1049B0003D476391E702EFF06F872A8661C1834626
:1049C000250083473500A207DD8EA2852685EF00EE
:1049D000905191A0014581A01306A043B795001006
:1049E000938545843785001013058534EFE07FF605
:1049F000029001450DA009476384E702B93F2A866A
:104A000041C18346260083473600A207DD8EA2857A
:104A10002685EF00504DB2402244924441018280ED
:104A2000EFF0EFD72A8671FD13061046B7950010F8
:104A3000938545843785001013058534EFE07FF1B9
:104A400002900145C9BF83C5450083475400A207B2
:104A5000DD8DEFF06FD52A8615C583460500A2854A
:104A60002685EF00504845BFFD352A8611CD834687
:104A70000500A2852685EF00104771BF014561BF83
:104A8000014551BF014541BF014571B78280828018
:104A900082808280B74700209387C7CF03C5170065
:104AA0003335A0008280B747002003A5C7CF135538
:104AB00025488280B747002003C5D781130515F02C
:104AC0003335A0008280011106CE22CC26CA4AC806
:104AD0004EC62A892E84AE89F13FAA84631A050C3A
:104AE0002DC0130640058145374500201305C5CF6D
:104AF000EF20501CA38901861385F185EFC0AFD448
:104B00001384F185A3AD81843745002013054581C9
:104B1000EFC0EFDE3744002013050480EF20F009DA
:104B200013040480A3A38186B7470010938707A8C6
:104B300099C71385B186EFE0BFF4A3A7A18601440E
:104B400025A81306201DB79500109385C58A3785C3
:104B5000001013058534EFE0DFDF029091A8998FF4
:104B60009607379700101307C78BBA97DC4385C7A2
:104B7000829705041374F40F03C7B186A2879306C6
:104B8000170063CF8602E37CE4FC83A7F18613174A
:104B90005400BA97E1FF1306001FB79500109385E4
:104BA000C58A3785001013058534EFE09FDA02903F
:104BB0002685F2406244D2444249B249056182806E
:104BC000B7470020A38E2781CE854A85EFF0EFF806
:104BD000AA8409C54A85EFF00FF1D9BF1306801FDB
:104BE000B79500109385C58A378500101305853465
:104BF000EFE03FD602906DBF411106C626C24AC003
:104C0000B747002083C7D7813E8983C7250093F724
:104C1000070795EB22C42E84B74700209387C7CFA0
:104C200083C527002285EF10F054AA8405CDA28504
:104C30004A85EFF0EFFFAA8422442685B2409244D1
:104C40000249410182801306B050B7950010938548
:104C500045813785001013058534EFE09FCF029022
:104C60008144E1BF1306C050B7950010938545817C
:104C70003785001013058534EFE0BFCD0290224444
:104C80006DBF797106D622D426D24AD04ECE52CCF0
:104C900056CA5AC85EC6AA8A2E84B289368A3A8B08
:104CA000BE8B0149B9A81306704EB79500109385C5
:104CB00045823785001013058534EFE09FC90290C7
:104CC00081442685B250225492540259F249624AD4
:104CD000D24A424BB24B456182801306804EB79553
:104CE0000010938545823785001013058534EFE069
:104CF0005FC60290F9B72380BB00834704003E944F
:104D00000509635A3903034714009547E31DF7F873
:104D1000834534008D89E39845F9A2855685EFF0E7
:104D2000BFEDAA845DD98345240093D77500E1F7D0
:104D30002300BB00D9B7854469B7411106C613F5F6
:104D4000F5079D813325B52013050503B7470020DE
:104D50009387C7CF3E9583A5B1851105EF10B03479
:104D6000B24041018280411106C613F5F5079D81CD
:104D70003325B52013050503B74700209387C7CF18
:104D80003E9583A5B1851105EF109039B2404101E0
:104D90008280411106C622C426C2B747002003C53F
:104DA000D78113F4F50793D47500B7470020938794
:104DB000C7CFB327F420A69783C74703858BA1E706
:104DC000B74700209387C7CFB327F420A69703C720
:104DD000470313671700238AE702EFF0CFE931E1B9
:104DE000B74700209387C7CF3324F4202694834706
:104DF0004403F99B230AF40283474403ED9B230AEF
:104E0000F402029039A813069053B79500109385C9
:104E100045803785001013058534EFE09FB302907D
:104E20000145B2402244924441018280411106C6AC
:104E300022C426C2AE8413F4F507B747002003C589
:104E4000D781EFF0AFE69D80B74700209387C7CFAB
:104E5000B327F420A69703C7470313672700238AC5
:104E6000E70203C7470313671700238AE702B2402C
:104E70002244924441018280411106C622C426C2C6
:104E8000AE8413F4F507B747002003C5D781EFF0D0
:104E90000FE69D80B74700209387C7CFB327F42044
:104EA000A69703C74703759B238AE70203C74703F7
:104EB000799B238AE702B2402244924441018280D6
:104EC00093F7F5079D81374700201307C7CFB3A796
:104ED000E720AE9703C547031355154882807971C3
:104EE00006D622D426D24AD02A892E840145EF0044
:104EF00030108347040093F7070613070006638BFF
:104F0000E706130700046386E708034704007D8B68
:104F100085466306D72889466306D7326319074258
:104F2000130700026384E708E5E38347140015478D
:104F3000638EE70E636DF70C05476385E7220D4727
:104F40006387E71E639A0724B747002083C7C7CF4C
:104F500013D7270093D75748098BD98F2317F10010
:104F600089461306E100A2854A85EF00C077854790
:104F7000BE84C5A61306402DB795001093850587FE
:104F80003785001013058534EFE0BF9C0290814403
:104F9000C9A637450010130565A3EF0070052286EA
:104FA00085454A85EFE03FA9AA8465A603474400EA
:104FB00083475400A207D98FBD4663E3E63A3747DB
:104FC000002093F7F70F1307C7CFBA9783C747009F
:104FD00003C7B18663F9E70083A5F1869607BE95FE
:104FE00091ED8144BDA69306170063CDF636998FE7
:104FF0009607B79500109385C58BBE9522864A8586
:10500000EFF08FEBAA84B1A60290814499A62147C4
:105010006383E70425476381E7061947639EE71624
:10502000A2854A85EFF0BF93AA8425A62285EF00CA
:10503000E07C834524004A85EFF02FAEB74700207F
:105040009387C7CF03C70700136727002380E700B4
:105050008547BE84FDACB74700209387C7CF83C781
:1050600017002307F10085461306E100A2854A8553
:105070009D2D8547BE84F1AC4ECE83472400BE896A
:10508000B74700209387C7CF83C71700638A3709C4
:10509000B74700209387C7CF83C7170095E3B7476B
:1050A00000209387C7CFA380370163890906CE8587
:1050B0004A85EFF02FE3AA840DCDEFF03F9D8DA040
:1050C00052CC56CA81454A85EFF0CFB24A85EFF0FF
:1050D0006FB9B74700209387C7CF3E8A83C72700A1
:1050E000BE8A4A85EFF0CFD123015A01624AD24AE3
:1050F0007DB713064032B795001093850587378535
:10510000001013058534EFE0DF840290B7470020DC
:105110009387C7CFA3800700F24925ACEFF03F97F4
:10512000A2854A8585238547BE84F2491DA403478D
:10513000240083473400A207D98F05476384E70022
:10514000814401ACB74700209387C7CF03C707004E
:10515000136787002380E700A2854A8525238547BA
:10516000BE84C5AA0347240083473400A207D98F11
:1051700005476384E7008144E9AAB7470020938785
:10518000C7CF03C707005D9B2380E700A2854A8540
:10519000D5298547BE8475AA029081445DAA03473C
:1051A000440083475400A207D98FBD4663EEE61A38
:1051B0003747002093F7F70F1307C7CFBA9783C776
:1051C000470003C7B18663F8E70483A5F186960715
:1051D000BE95638D051822864A85EFF0EFCDAA842F
:1051E000631905168347040093F7070663930716B0
:1051F00083471400D9170547636DF7140145CD2B7C
:1052000003471400A9476304F702A2854A859D2934
:105210008547BE843DAA9306170063CBF614998F89
:105220009607B79500109385C58BBE956DB723077C
:10523000010085461306E100A2854A856D21854758
:10524000BE8401AA8345440013F7F50713D6750001
:1052500093F605078DEEB74600209386C6CF332719
:10526000D72032970347470183C6B1866370D704BE
:1052700083A6F18616073697BA84A1CB638C040EF9
:105280002286A6854A85EFF02FC3AA84D9A01306EB
:105290005039B795001093850587378500101305A1
:1052A0008534EFE00FEB0290814465A01386160071
:1052B000634BE600158F1607B79600109386C68BD2
:1052C0003697BA845DBF81444DBF834714000547BC
:1052D0006384E7020D476381E702BDE74A85EFF08B
:1052E0003FBE2317A10089461306E100A2854A8527
:1052F000DD2E8547BE84B1A88346240003473400D1
:105300002207558F19E70547638CE7024A85EFF0BE
:10531000FFB1BDC02286A6854A85EFF0EFB90145F1
:10532000C129B74700209387C7CFDC5B93D7874855
:10533000BE8485E3A2854A85B1268547BE8411A82F
:105340004A85EFF07FB3F1B70290814419A0029033
:1053500081442685B250225492540259456182807C
:105360008144C5BF8144F5B78144E5B78144D5B7D1
:105370008144C5B78144F1BF8547BE84D9BF0111BF
:1053800006CEEFF02FF36304052422CCE9A01147E9
:10539000639CE722B747002083A7C7CF858BC5CF83
:1053A000B747002003A5C7CF13553548EFF04FEEA0
:1053B0005DA01D476389E71221476384E71E1947F3
:1053C0006394E72083C731876380071083C73187E1
:1053D000FD1793F7F70FA389F18683C73187A5EFF0
:1053E000B74700209387C7CF03C70700136717008D
:1053F0002380E70003C74703799B238AE70203C79B
:1054000047036D9B238AE70203C75703799BA38A4F
:10541000E70203C757036D9BA38AE7022C000345ED
:105420004100EFF0DFAB05E9814503454100EFF0B6
:10543000EF879305000803454100EFF02F8721A86F
:1054400003454100EFF04FA6B7470020224793875E
:10545000C7CF2381E70003A471865C4873770430CB
:1054600093963700B316D028F19B2FA6D744758E9C
:105470006DFE0F00300318CC4C002285EF109063B6
:1054800058481C4C0F00300323000700A18B73A069
:105490000730630D05128347510015476389E70EF6
:1054A000E369F7F00D476384E710E362F7EE054721
:1054B000E388E7F809476399E71003454100EFF0F7
:1054C000AF9EEFF0CFDC41BF13065026B79500101A
:1054D0009385C5893785001013058534EFE06FC7C4
:1054E00002906244EDA08345810013F7F50713D6BF
:1054F0007500B74700209387C7CFB327F720B2972F
:1055000083C64703F99A238AD70283C64703ED9AD5
:10551000238AD7021DCBB74700209387C7CF3327F5
:10552000F72032978347470103C7B18663F6E70246
:1055300003A7F1869607BA9785CF9C4FB2460346DC
:10554000910003454100829739B7B2460346910066
:1055500003454100FD2C01B79306170063CAF6000E
:10556000998F9607379700101307C78BBA97F1B733
:1055700013060029B79500109385C589378500105B
:1055800013058534EFE0EFBC0290624489A0B74771
:10559000002083A7C7CF858BE38F07EAEFF06FCF9B
:1055A0005DBDA247E38907EA324582976DB5B747EB
:1055B00000209387C7CF83C73700858BE38D07E82B
:1055C0002245EFF02FB941BD029071B56244F2401F
:1055D00005618280411106C68387050063CB070001
:1055E0009305000881460146EFF0AFFAB240410151
:1055F00082808145C5BF011106CE22CC26CA4AC889
:105600004EC6AA89B7470020938787CC03D9C70025
:1056100083D4E7003304994033440408130700049B
:105620003354E40A8387070063C407028145630794
:10563000990437460020130686C8A2864E85EFF0EF
:105640004FF5F2406244D2444249B249056182803A
:1056500063039902B7470020938787CC8C47636127
:105660008702228637450020130585C8EF10106F8A
:10567000930500086DBF9305000855BF014675BF2F
:105680000145C1B7411106C6B7470020938787CCB3
:1056900083CE050003CE150003C3250083C8350063
:1056A00003C8450003C6550083C665002380D701A3
:1056B000A380C70123816700A3811701238207010B
:1056C000A382C7002383D70003C77500A383E70025
:1056D00023A407002397070023960700EFF09FEF0E
:1056E000B24041018280411106C622C4B747002062
:1056F000938787CC03CF050083CE150003CE25000A
:1057000003C3350083C8450003C8550003C76500BF
:105710002380E701A380D7012381C701A38167000C
:1057200023821701A38207012383E70003C77500C3
:10573000A383E70090C72397070003C8650003C74A
:105740007500220733670701B356D70A2396D7009F
:1057500003C7650083C77500A207D98FA9CB91C283
:1057600011CAEFF05FE92A840DC52285B2402244B8
:105770004101828013062007B7950010938545915B
:105780003785001013058534EFE0AF9C029001448B
:10579000E9BF13064007B7950010938545913785FB
:1057A000001013058534EFE0CF9A02907DBFEFF033
:1057B0007FE22A845DF913066007B7950010938590
:1057C00045913785001013058534EFE08F980290DE
:1057D00069BFB7470020938787CC23A0070023A287
:1057E000070023A4070023A6070023A80700828040
:1057F000B7470020938787CC88CB8280B7470020AB
:10580000938787CC03430500834815000348250090
:105810008345350003464500834655000347650030
:1058200023806700A380170123810701A381B700AC
:105830002382C700A382D7002383E70003477500B4
:10584000A383E70023A407002397070023960700FC
:105850008280411106C622C426C2AA849D81B74710
:10586000002083A787CC93D777486389B7048DC678
:105870001306D009B79500109385C58F37850010A2
:1058800013058534EFE0EF8C029001442285B2408D
:10589000224492444101828037440020930584CC05
:1058A000EFE09FB6930784CC9C4B91C7130684CC42
:1058B0008D452685829785473E84C9BF3684B74784
:1058C0000020838787CC63CF0700B74700209387EA
:1058D00087CC884769C53686B7450020938585C83B
:1058E000EF10D047B7470020938787CC03D7E70056
:1058F000B34604083697334707082397E7009447D1
:10590000A29694C783D767006306F7009307F00356
:1059100063E38706B7470020938787CC9C4B89CBEE
:1059200037460020130686CC89452685829705C90F
:10593000B7450020938585CC2685EFF0BFC92A8422
:1059400031F51306500CB79500109385C58F378538
:10595000001013058534EFD0DFFF029005BF8145AD
:105960002685EFE0BFB4930500082685EFE01FB45D
:1059700085473E8421BF2685EFF0FFC72A84E317C1
:1059800005F01306D00CB79500109385C58F3785A9
:10599000001013058534EFD0DFFB0290C5BD014434
:1059A000F5B5411106C626C24AC02A89EFF08F8E8E
:1059B00001E981442685B240924402494101828036
:1059C000EFF06F8EAA8475F537470020B347292181
:1059D000B3C7F720130707BCB3E7E72083C7370037
:1059E000E9DB22C4B3472921B3C7F7208E07C107DB
:1059F00037470020130707BCBA973E843E85EF1057
:105A000070079307F00363E4A700224465B73747A4
:105A10000020B3472921B3C7F720130707BCB3E71A
:105A2000E72083C537000145EFF02FB101E5AA84D7
:105A3000224449B72285EF10F0039307F00363FD7A
:105A4000A70213167900B7470020334529213345B3
:105A5000A520938707BCB367F5209306000437475A
:105A60000020130707B43A9683C537000145EFF0CD
:105A70004FB2AA8422443DBF37470020B3472921B3
:105A8000B3C7F720130707BCB3E7E72083C5370088
:105A90000145EFF04FAD224431BF411106C622C48B
:105AA0002A84EFE03FFF09E5B240224441018280B1
:105AB000EFE07FFF0DE1B7470020334584203345F9
:105AC000A520938707BC3365F52083474500858B68
:105AD00089C70545D1BF0145C1BF0145F1B7411196
