:020000041000EA
:10000000F2EB8871ECA200100CA30010A800001005
:1000100090A31AE7D3DEFFFF420101114403000061
:100020003600001000200820FF04000034E2000029
:10003000793512AB79A89751001093817168172117
:100040000810130121FC174500101305B5BB7310F0
:100050005530732540F135ED1707000013070705EC
:100060000C4391C55043144731072528D5BF974508
:1000700000109385E5EC17560010130626EE21A01C
:1000800023A005009105E39DC5FEEF400027EF008A
:10009000D044EF4000230290FDBF884108C2910583
:1000A0001106E36CD6FE82800CA300100000002035
:1000B0003C3F002048E2001000000820000008201B
:1000C00048E2001000100820001008200000000086
:1000D000828021651305C5DF02859307000089CF63
:1000E00097550010938545C917950000130585BDE8
:1000F000170300006700000082804111B787F8BF36
:10010000AA9793B717001387B181B3A7E720839706
:1001100007006388B700A307B10001479306F10009
:100120001DA8B547A307F10001479306F10065F745
:100130001C4D93F70702EDFF83C706001CC105079E
:100140008506F5B71C4D93F70702EDFF83C7060040
:100150001CC1050785067DD741018280011106CEAD
:1001600022CC26CA2A84AE8481473DA0A307B100D1
:1001700001479306F10011A81C4C93F70702EDFF0D
:1001800083C706001CC0050785067DD783C704000A
:10019000CD1793B71700850483C5040089C5F9F707
:1001A0002285A13FE5B7F2406244D24405618280D6
:1001B000411101479306F10009A81C4DC18BF5FFC1
:1001C0001C412380F6000507850665DB0345F10029
:1001D00041018280397106DE22DC26DA4AD82A897A
:1001E000B7A700109387079A03A3070083A84700C7
:1001F00003A88700C8478C4BD04B944FD84F1AC6E2
:1002000046C842CA2ACC2ECE32D036D23AD49C53DB
:100210003ED60144814411A00504A14763CC870068
:100220007C00B347F4208C434A85EF80C0416DD5F4
:10023000BD04DDB71305400633C5A40AF25062546D
:10024000D2544259216182805D7186C6A2C4A6C281
:10025000CAC02A89B7A600109386069A93874602D9
:100260003800938646058843CC43904708C34CC367
:1002700010C7D04750C7C1074107E396D7FE944344
:1002800014C3DC435CC30144814411A00504B54799
:1002900063CC87003C00B347F4208C434A85EF8051
:1002A000803A6DD5D104DDB71305400633C5A40AE5
:1002B000B640264496440649616182809307000453
:1002C00063C7B700014885473E86814839A0794811
:1002D000DDBF050663C2C802850763D1B7023307D5
:1002E000F500834607001387F7FF2A9703470700A7
:1002F000E381E6FE0546CDB7B288F9BFA94763D3CF
:1003000017016508814711A0850763D9B700330736
:10031000F500034707006DFB3D08FDB713054006D8
:100320003345A80A8280797106D622D426D24AD0D3
:100330002A89B7A700109387079AEC4FB053F4535C
:10034000B8572EC632C836CA3ACCFC573ECE814486
:10035000014419A8290405057C00B3C7F4208C4387
:10036000EF80602E65F98504914763C497004A8544
:10037000E5B7130540063345A40AB25022549254FF
:10038000025945618280011106CE22CC26CA4AC894
:100390004EC62A882E8401478144014531A0930727
:1003A000C005638FF6020507635A87043A86B307D0
:1003B000E80083C60700B7A700109387570CB697CD
:1003C00083C7070093F77709F9FBA947E389F6FC90
:1003D000B547E386F6FCA547E383F6FC0505C1B700
:1003E00093071700E3D187FC050642968346060073
:1003F00093078007E399F6FA850475B797300010E4
:10040000E780C04DAA892E89228597300010E780A9
:10041000E04CB7A7001003A6871C83A6C71C972033
:100420000010E780804F2A86AE864E85CA859720C9
:100430000010E78020336342A00281470D476353D9
:100440009700F9071305400633C5A70AF240624436
:10045000D2444249B2490561828093078002F9BFC4
:10046000130101BE232E114023263141AE89638141
:100470000512232C8140232A914023282141232443
:100480004141232251412A841306004081450A85B7
:10049000EF80203C014719A8B307E40083C7070099
:1004A000B3C727209443850694C30507E34637FF67
:1004B00001440149814411A005049307F00F63CB67
:1004C0008706B34724208843E358A0FE97300010E6
:1004D000E780C040AA8A2E8A4E8597300010E780B8
:1004E000E03F2A86AE865685D28597200010E780A9
:1004F00020B7AA8A2E8A97000010E780A05FB7A7CE
:10050000001003A6071D83A6471D97200010E78053
:1005100020B55686D28697200010E78000402A86B4
:10052000AE864A85A68597300010E78040992A89D3
:10053000AE8459B7B7A7001003A6871D83A6C71DB1
:100540004A85A68597200010E780C0216344A00457
:10055000B7A7001003A6071E83A6471E4A85A685D7
:1005600097200010E78000206342A0040145032487
:1005700081418324414103290141032A8140832A87
:1005800041408320C1418329C1401301014282803F
:100590002E85C5BF79450324814183244141032928
:1005A0000141032A8140832A4140E1BF3D450324A4
:1005B00081418324414103290141032A8140832A47
:1005C0004140C1B7011106CE22CC26CA4AC84EC648
:1005D0002A84AE842320050023220500232405005D
:1005E0002326050023280500232A0500232C0500C7
:1005F000232E05002E85EF80C03EAA892A892685F4
:10060000D13E48C02685893108C4CE8526857D31F6
:1006100048C42685093B08C8CE852685AD3348C821
:10062000CE852685353D08CC9307000463D6370177
:10063000D1475CCC014721A08147E5BF0507635D39
:100640002703B387E40083C60700B7A7001093878A
:10065000570CB69783C7070093F70702E5D3A9475E
:10066000E38EF6FCB547E38BF6FCA547E388F6FC82
:100670001C4085071CC0D9B72285F2406244D24491
:100680004249B249056182805C411845BA97584594
:10069000BA971849BA975849BA97184DBA97584D0A
:1006A000BA9718413347E720BA971305400633C578
:1006B000A70A8280411106C622C426C2AA842E84BB
:1006C000238005005C41634DF0029C446347F008C1
:1006D000DC446345F00E9C486343F014DC48634DF2
:1006E000F0189C4C634FF01EDC4C6348F0208347AD
:1006F0000400638D0726B240224492444101828067
:100700002E85EF80002E2295B7970010938707CC97
:1007100003CE070003C3170083C8270003C83700B0
:1007200083C5470003C6570083C6670003C7770029
:100730002300C501A300650023011501A3010501E4
:100740002302B500A302C5002303D500A303E500DF
:1007500083C787002304F5008DBF2285EF806028C2
:100760002295B79700109387C7CC83CE070003CE9E
:10077000170003C3270083C8370003C8470083C599
:10078000570003C6670083C6770003C787002300AE
:10079000D501A300C50123016500A30115012302B2
:1007A0000501A302B5002303C500A303D50023045C
:1007B000E50083C79700A304F50019BF2285EF80E9
:1007C00040222295B7970010938787CD83CE0700EC
:1007D00003CE170003C3270083C8370003C84700B0
:1007E00083C5570003C6670083C6770003C7870029
:1007F0002300D501A300C50123016500A301150154
:1008000023020501A302B5002303C500A303D500FD
:100810002304E50083C79700A304F5006DBD22857E
:10082000EF80201C2295B7970010938747CE03CE08
:10083000070003C3170083C8270003C8370083C518
:10084000470003C6570083C6670003C7770023002D
:10085000C501A300650023011501A30105012302C1
:10086000B500A302C5002303D500A303E50083C799
:1008700087002304F5009DB52285EF808016229520
:10088000B7970010938707CF03CF070083CE1700D9
:1008900003CE270003C3370083C8470003C85700AF
:1008A00083C5670003C6770083C6870003C7970028
:1008B0002300E501A300D5012301C501A3016500C3
:1008C00023021501A30205012303B500A303C500FC
:1008D0002304D500A304E50083C7A7002305F50082
:1008E00009B52285EF80E00F3946B7950010938552
:1008F000C5CF2295EF806000C5BB2285EF80600EDA
:100900002295B79700109387C7D083CF070003CFF6
:10091000170083CE270003CE370003C3470083C8E8
:10092000570003C8670083C5770003C6870083C6E6
:10093000970003C7A7002300F501A300E5012301E9
:10094000D501A301C50123026500A30215012303FC
:100950000501A303B5002304C500A304D5002305A6
:10096000E50083C7B700A305F50051B3B7970010A2
:10097000938787D103C5070083C5170003C62700E7
:1009800083C6370003C747002300A400A300B400B8
:100990002301C400A301D4002302E40083C757004D
:1009A000A302F40089BB317106DF22DD26DB4AD9C0
:1009B0002A89AE84B7450020938585B70A85EF0064
:1009C000807F014439A0B30589000A85EF00607F6C
:1009D0004104E34A94FEFA506A54DA544A592961B0
:1009E00082805D7186C696C49AC29EC022DE2ADCD1
:1009F0002EDA32D836D63AD43ED242D046CE72CC57
:100A000076CA7AC87EC6F32720347324103421476F
:100A1000638CE7001387B7FF13371700E51793B709
:100A20001700D98FA1E301A085476309F5021104DE
:100A300073101434B640A64216438643725462556E
:100A4000D2554256B256225792570258F248624E39
:100A5000D24E424FB24F6161730020302E85C145A6
:100A60009937F1B7B75700200547A382E7ECB7578E
:100A700000209387C7E237970010130707D20C4373
:100A8000504314478CC3D0C394C75447D4C70357AB
:100A900007012398E70001A0F32700309397B74898
:100AA0009397C7487390073073101534B717001029
:100AB0009387279E739057307300203082804111B6
:100AC00006C6371500101305C5ADF937B240410110
:100AD0008280AA850545730000008280417123262B
:100AE000111E2324811E2322911E2320211F21AAAF
:100AF000B7272020938707022326F11C2328F11C07
:100B0000232AF11C232CF11C375600201306C6DAC9
:100B10007D57930646001C42110693D77728E38C35
:100B2000E7FE93C7F7FF939717608D833E96158E68
:100B3000C14763D3C7003E86E003B75500209385C5
:100B4000C5DA2285EF70705B230E011C22855137B8
:100B5000B747544193874714BEC789679387A70354
:100B60002318F10C2309010C0144BD4763C187041C
:100B7000E8017D571C41110593D77728E38CE7FEE8
:100B800093C7F7FF939717608D833E959C091D8D42
:100B90009307041E8A9703C6C7FEB7950010938576
:100BA000C5DCFC013E95EF30A06A05047DBFE8017D
:100BB0007D571C41110593D77728E38CE7FE93C737
:100BC000F7FF939717608D833E959C091D8DB7574E
:100BD000002003A607ECE001F400B7950010938510
:100BE00045DD2295EF30C066A28537850740EFF0DE
:100BF000EFD637950010130545DEEF30D01BB75701
:100C00000020238207ECB757002083C747ECE5DFBD
:100C1000375400209305C4DA37950010130545D3E7
:100C2000EF3070209305C4DA6810693AB2573EC0BD
:100C3000C2573EC2D2573EC4E2573EC6F2573EC8E4
:100C400086473ECA96473ECCA6473ECE0A852D3CF7
:100C5000375400202320A4ECB2573EC0C2573EC2F6
:100C6000D2573EC4E2573EC6F2573EC886473ECAF8
:100C700096473ECCA6473ECEE400A6850A851D3C9D
:100C8000A685375500201305C5E2EF70D05B83259C
:100C900004EC268637950010130505D5EF30B01803
:100CA000032704EC93071003E3D4E7E4032604ECE2
:100CB000E001A686B79500109385C5D72285EF3051
:100CC0002059A28537850740EFF04FC937950010AE
:100CD000130545DAEF30300E1DB7757106C722C512
:100CE000EF30B00C1305007DEF1040703795001009
:100CF000130585E0EF30300C37950010130545E300
:100D0000EF30700B37950010130545E6EF30B00A51
:100D100089659385055837850740EF10B02C8945C4
:100D200011454D2989451545752181460546A14541
:100D300037850740EF10D0258966938606581546FB
:100D4000914537950010130505E9EF30D00D3715A3
:100D500000101305E5ABEF70A05337950010130595
:100D600005EDEF305005B7950010938545EF3785B9
:100D70000740EFF0AFBE37950010130545F0EF3098
:100D80009003379500101305C5F2EF30D0020144EF
:100D900051A08A8537950010130505FCEF30B00887
:100DA0008A85375500201305C5DAEF70D049B7574B
:100DB000002005472382E7EC2945EF10206301441A
:100DC00019A89307E00763C88700930704088A9768
:100DD0002380A7F80504B78707409C4FC18B85EB9C
:100DE00037850740EFF0CFBC930765FF93B7170037
:100DF000130735FF13371700D98FE1D7930704087E
:100E00008A97238007F8E34680F80144E9B729452B
:100E1000EF10C05DB757002083C757ECCDDF379583
:100E20000010130585F5EF300079B7950010938514
:100E300045F937850740EFF06FB21305803EEF109C
:100E4000E05AE5BF0147B1A093172700B346A7209A
:100E50003346B720034606002380C600938617005A
:100E60003306D500AE9683C606002300D6009386CF
:100E700027003306D500AE9683C606002300D600B1
:100E80008D07B306F500AE9783C707002380F600F1
:100E900005078D47E3FAE7FA91471307B00263624B
:100EA000F7124111BDA8139727001386C7FF9316A9
:100EB00026003346A620034606000348C100B3C5FA
:100EC000A720334606012380C500138616002A9604
:100ED000834506000348D100130617002A96B3C5C0
:100EE00005012300B600138626002A9683450600D6
:100EF0000348E100130627002A96B3C50501230025
:100F0000B6008D06AA9683C606000346F1000D07BB
:100F10002A97B18E2300D70085071307B0026360BC
:100F2000F70A9386F7FF13972600B3C6A62003C8D7
:100F300006002306010193061700AA9683C5060042
:100F4000A306B10093062700AA9603C6060023074E
:100F5000C1000D072A9783460700A307D10013F7A6
:100F6000370031F32306B100A306C1002307D100E7
:100F7000A307010137A700101307C7A1BA9583C5BE
:100F800005002306B1003A9603460600A306C100F9
:100F9000BA9683C606002307D1004297034707008D
:100FA000A307E10093D6270037A70010130707A176
:100FB000369703470700B98D2306B100EDB541010F
:100FC0008280828081480DA8B3C7E8203388F5006D
:100FD00083460800131345009A97B29783C707000A
:100FE000B58F2300F80005071377F70F8D47E3FD52
:100FF000E7FC850893F8F80F8D4763E41701014774
:10100000F5B7828081470DA0B306F50003C6060040
:1010100037A700101307C7A13297034707002380A3
:10102000E600850793F7F70F3D47E37FF7FC8280E3
:101030008347150003475500A300E50003479500CB
:10104000A302E5000347D500A304E500A306F500CD
:10105000834725000347A5002301E5002305F5008C
:10106000834765000347E5002303E5002307F500F8
:10107000834735000347F500A301E5000347B500AA
:10108000A307E50003477500A305E500A303F500EA
:1010900082801357750093173700998F8A07998FAD
:1010A00006053D8D1375F50F8280797106D622D421
:1010B00026D24AD04ECE52CC56CA5AC85EC6AA8A4A
:1010C000014969A013142900B34B592103CB0B002C
:1010D000130A1400569A03450A0033456501930923
:1010E0002400D69983C709000D0456948344040054
:1010F000A98FBD8C793FB3C7A400B347FB00238001
:10110000FB00834B0A0003C5090033C5AB00513710
:10111000258DB3CBAB0023007A0103CA0900034538
:1011200004003345AA00B537258D334AAA00238031
:1011300049018349040033C56901A13FA98CB3C9A2
:1011400099002300340105091379F90F8D47E3FB5A
:1011500027F7B250225492540259F249624AD24AB5
:10116000424BB24B45618280411106C622C426C261
:101170004AC0AA842E892E86AA850145A135054438
:101180002685493526856D35A947630CF4002685EB
:10119000293F4A86A6852285353505041374F40F48
:1011A000C5B74A86A6852945313DB24022449244BE
:1011B000024941018280411106C66931B2404101B4
:1011C0008280411106C6AE87AA853E85713FB24036
:1011D00041018280B78703409107B347F5209843C8
:1011E000134707041377070C8566BE9698C23787A6
:1011F00002403365E5204CC10D67BA971307001014
:1012000098C38280397106CE22CC2A842ED232D461
:1012100036D63AD83EDA42DC46DE37950010130562
:10122000C50AEF30403901CC4C102EC62285EF3074
:10123000003B37950010130505FEEF30C03705451C
:10124000EF30E00773750430B74700209387F752FB
:10125000139737003317E028F19BAFA6E744F98EC8
:10126000EDFE0F00300382800F003003B7470020EF
:1012700093874752A3850700218973200530828018
:10128000411106C622C426C24AC0AA842E843289CD
:10129000553F935734003387F40083460700937714
:1012A0007400B317F02833F6F60009EE93F7F70F42
:1012B000D58F2300F7004D3FB240224492440249AB
:1012C00041018280A2854A85353F011106CE22CC9C
:1012D00026CA4AC84EC652C42A89AE893284B68408
:1012E0003A8A8D3711A0050463E684021356340050
:1012F0004A960348060093777400B317F028B37832
:10130000F800E39208FE93F7F70FB3E70701230015
:10131000F60011A07D54893F9357F401B3F73701CC
:1013200091EB2285F2406244D2444249B249224ABA
:10133000056182805285F93537470020034507F261
:101340009307150093F7F70F2300F7F25D476377D4
:10135000F700B747002041472380E7F28280411120
:1013600006C6AA85379700101307C70BFD466146CE
:1013700037550020130585EC893FB240410182803A
:10138000014719A80F003003B74700209387475241
:10139000BA97238007000507FD47E3F5E7FE828043
:1013A00093574501FE07135715005607B706E07F10
:1013B000758FD98F1357B5005207B7061000758F78
:1013C000D98F37F70F00798D5D8D82809357B500E7
:1013D000B2070567F98F135745002E079316B028FB
:1013E000758FD98F13578500260713770760D98F1C
:1013F0001357A500220713770710D98F13576500DD
:101400001E0713770708D98F135775001A0713772C
:101410000704D98F135715000E0713778703D98F49
:1014200015810A0511895D8D828003570500935649
:10143000270093F7E60013567700418AD18F1316E1
:10144000370013760602B2971356170093750604F9
:10145000AE979315170093F50508AE9713760630EF
:10146000B2970A0713770740BA971317B028F98E77
:10147000958F3E95828015C2060593970501C98F09
:1014800073B027BE05054177F98D4D8D733025BEAC
:1014900073A007BE732005BE8280060593970501E1
:1014A000C98F73B007BE0505C177FD8D4D8D7330B3
:1014B00005BE8280F3275030F19B13054503334569
:1014C000F5200CC10F0030030F003003B747002098
:1014D00093874752A3840700218A732006308280B5
:1014E000411106C63385A5401307F57F05078567BB
:1014F000F91763EFE7009377150099EBC13D13658A
:1015000015001315D52833450508B24041018280E6
:10151000B79600109386860D37A60010130686B383
:10152000930580123795001013058510EF20D059D0
:10153000411106C67537E1775D8D33450508B24028
:101540004101828093574500F3A707BEC1833D89BF
:101550003315A0287D8D3335A0008280411106C649
:10156000193FB24041018280411106C62E86B31553
:10157000A0281581E537B24041018280935745008C
:101580003D893315A0284205C98F73A027BE8280EC
:10159000F3275030F19B130545033345F5200841EF
:1015A0008280411106C6ED37B7470020938787B880
:1015B0001D8D13350503B24041018280411106C6DD
:1015C00022C426C24AC0AA842E84737704303A8982
:1015D000B74700209387D752139737003317E02877
:1015E000F19BAFA6E744F98EEDFE0F0030034D37B7
:1015F000B7470020938747DA6304F500631C850032
:101600004A86A28526857D35B2402244924402490D
:1016100041018280B79600109386061537A6001008
:101620001306C6B59305D00E379500101305851027
:10163000EF209049397106DE22DC5ECEF37704306C
:10164000BE8BB74700209387D752139737003317C5
:10165000E028F19BAFA6E744F98EEDFE0F003003C2
:101660000384F1806343040C26DA4AD84ED652D460
:1016700056D2AA8A2E89B284B3298420B747002083
:10168000938787B8B3C9F9208386A900A387D1803F
:10169000F3265030F19A130745033347D720032A26
:1016A0000700B307FA401307F002637DF70CB74752
:1016B0000020938747DA6313FA0A5AD0131A1400EA
:1016C000B3278420374B0020130B8BB8B3C7672197
:1016D00037450020130585BB1D8DD9311365F52EC7
:1016E0002AC24AC4F177938727E42316F100FD57F5
:1016F0002307F100A3079100B3078A00B3C767214E
:1017000088C323A22701324798C74E8A5E86D285B6
:1017100056854D33D2544259B259225A925A025BDD
:10172000F2506254F24B2161828026DA4AD84ED6BA
:1017300052D456D25AD062CC66CA6AC8B796001044
:101740009386861837A60010130646B49305C01773
:101750003795001013058510EF2010375AD062CC52
:1017600066CA6AC8B79600109386061B37A6001093
:10177000130646B4930530183795001013058510ED
:10178000EF20903437B7AAAA1307B7AA33B7E702F6
:101790000D833327E7200A076397E7025AD0D287E1
:1017A000014B03C7B70063F5E4040387A700634058
:1017B00007043327E7203E8BB7470020938787B87D
:1017C000B347F720F9BF5AD062CC66CA6AC8B79649
:1017D00000109386861D37A60010130646B49305A5
:1017E00040193795001013058510EF20F02D3E8B22
:1017F00063080B08931719000567F98FCA9793F7C9
:1018000007809397B74893E7770B3EC25209136955
:10181000790E1319F9284AC40309AB00635209046D
:101820003165130525E42316A10023072101A30731
:101830009100CE8513058B00E5392314AB002305F9
:101840008B00B747002033248420938787B8334424
:10185000F42092471CC0A2475CC0B2471CC47DB5AF
:1018600013058B00D936AA85B3278420374700207B
:10187000130787B8B3C7E72013858700553965B7C5
:1018800062CC66CA6AC8B327842037470020130B8E
:1018900087B8B3C767213E8C37450020130585BB49
:1018A0001D8DFD3C9367F52EBE8C3EC24AC4D28589
:1018B00013058C00B5392316A100B3076A41898747
:1018C00037B7AAAA1307B7AAB387E7022307F1001D
:1018D000A307910023209C0123222C0132472324BB
:1018E000EC0003274A00931717008566F58FBA9717
:1018F00093F707809397B74893E7770B2320FA0075
:1019000052071367770E1317F7282322EA004E8A2F
:10191000624CD24C424DDDBB93D7450093C7F700D4
:10192000935625000D890A053D473317A700420746
:10193000558F733037BEB397A700C207DD8E73A0F3
:1019400036BE8280411106C622C4014431A09305EF
:1019500000082285D137050493073003E3F987FE99
:1019600073600430B240224441018280411106C6B6
:10197000B7470020938787B8B307F5401307F002F5
:101980006367F702732750BEA167F98FA9C3B796A3
:1019900000109386462837A600101306C6B193059B
:1019A00020283795001013058510EF20F011B79609
:1019B00000109386C62537A600101306C6B19305FE
:1019C000F0273795001013058510EF20F00F1183D5
:1019D0001377F71F1307470373780430B7460020C7
:1019E0009386D652139636003316C028F19AAFA8C4
:1019F000C644B3F8C800E39C08FE0F003003B746A6
:101A00000020938686B8B306D540898637B6AAAA41
:101A10001306B6AAB386C602939646607326503064
:101A2000719A931827003347C72018436311A704FE
:101A3000F3275030F19BC69737470020130747DA4A
:101A400098C303C7F1802305E500A387D1800F0069
:101A50003003B747002093874752A38407001378C9
:101A6000880073200830B2404101828085070D470D
:101A7000636CF7023746002033A7F720130686B8B9
:101A80003347C7200307A700E312D7FE328733A6E8
:101A9000F7203346E620FD552305B600717713077E
:101AA00027E42314E60071BFB79600109386062939
:101AB00037A600101306C6B19305302937950010DC
:101AC00013058510EF205000411106C6AA853797EF
:101AD0000010130787299546014613850181EFF011
:101AE000CFFE63460500930730033385A740B2401D
:101AF00041018280B747002093874752AE971CC1AF
:101B00008280411106C622C42A84EFF0FF82AA8592
:101B10002285CD37FD572302F4000F003003B24079
:101B2000224441018280411106C622C42A84EFF07A
:101B3000BF80AA8522857D3FFD572302F400A302C2
:101B400004000F003003B240224441018280411161
:101B500006C622C4374400201304C4F21DA0B79661
:101B600000109386462B37A600101306C6B9E94528
:101B7000379500101305452DEF200075228551374C
:101B80002104B74700209387C7F3637BF4001C4010
:101B9000F5D70547E395E7FC228571372104D5B7D2
:101BA000B240224441018280B747002093874752C8
:101BB000AE971CC10F0030038280411106C622C4BB
:101BC0002A840545EFF0AFF9AA852285F13FB2409E
:101BD0002244410182802A87F32750BE9396070151
:101BE00063C10602918393F7F71F93874703938797
:101BF000C7FC93D6270081CA37850B408D8B1CC349
:101C000082808147EDB737050B40CDBF1855B3062D
:101C1000E64093874500B3C7A7209C43998F63E7AD
:101C2000F6001C513317B028F98F89E7910533C5A9
:101C3000A52010C1828042054D8D828083A731810D
:101C400073770430139637003316C028F19BAFA585
:101C5000C744F18DEDFD0F00300383A731810F00E4
:101C60003003238007009377870073A00730332069
:101C70001000014581458280397106DE22DC26DABA
:101C80004AD84ED652D456D25AD05ECE6800A1372A
:101C9000B787F4BFAA9793B717003247B75600200B
:101CA000B3C7E7209386C6D8B3C7D72080438347FE
:101CB0000400631BF700AA84930745043317E02848
:101CC0008D66B69798C359A4B7960010938686364A
:101CD00037A60010130686BC93052009379500101F
:101CE00013054539EF20405E5C48B3292921B3E94B
:101CF000F92083AA890003AAC9002685EF00D00D28
:101D0000330755413337E500B3874541998F63C7A2
:101D1000072463400A0E03AB0901B727001093871D
:101D200087C76307FB0683D5290003158400213785
:101D300083A54901029B2A8BAE8BB3677B01D5CB70
:101D400063D40B06B3866A41B3BADA00B3077A41AB
:101D5000B387574123A4D90023A6F90003950900AE
:101D6000634E051E832844013327A52033671721BE
:101D7000104758473386C64033B6C6003387E7401E
:101D8000118F634D071C2314A4001308840015A8A9
:101D900083AB490183A70B015E85829739C903ABE9
:101DA0000B0083AB4B0051BF2685EF00F002B3065A
:101DB000AB00B3B7A600AE9BDE9769BF3A880315A8
:101DC000070063430502031708003327E720336742
:101DD00017210C475047B385B640B3B5B6003386DC
:101DE000C7400D8EE35C06FC2390A9002310280158
:101DF000B5A2839709002314F4001C4873770430BC
:101E000093963700B316D028F19B2FA6D744758E32
:101E10006DFE0F003003831724002390F900231177
:101E200024011C480F0030032380070093778700AC
:101E300073A0073025A21C487377043093963700AF
:101E4000B316D028F19B2FA6D744758E6DFE0F00D8
:101E50003003035E4400131E5E60FD572312F4003E
:101E60001C480F003003238007009377870073A07E
:101E700007302DA8BE8503960700634306028397AB
:101E80000500B3A7F720B3E707219447D847B30667
:101E9000D540B336D5003387E840158FE35C07FCA7
:101EA0002390C501031E03002310C300634E0E0AD6
:101EB000032844013323CE21336303210325830008
:101EC0008328C30093058400031684007DB7230391
:101ED0000400930584000317840025A07D58FD5855
:101EE00023A4070123A6170183168400638AE60052
:101EF0002390C500831684002390D7002314E400A8
:101F00003287FD576305F7065448B327E720B3E748
:101F1000D7200396070083D6270093965660E3CF19
:101F200006FABE85F1BF4E86CA86B2452685F939C6
:101F300026855D25B387A940B3B9F9003309B940B7
:101F4000330939416349200563060904B247B317D1
:101F5000F028DCDC03198400E35809D883574400D7
:101F600093975760E3D907EC83476400ADF3831779
:101F7000840063C207025848B3A7F720B3E7E720FD
:101F800083A9870003A9C700FD57E39EF9F8E30181
:101F900039FB51BFC5DF33201000F2506254D254D8
:101FA0004259B259225A925A025BF24B2161828005
:101FB000411106C622C426C24AC02A84AE84B28514
:101FC000B7870B406309F50201492699B31490289D
:101FD00004D04A85EFF08FDE85454A85EFF0CFD8F3
:101FE0001304040489673E9404C0B240224492441E
:101FF0000249410182801149C9BF011106CE22CC9C
:1020000026CA4AC84EC62A842E89B289B6844CC5CF
:10201000EFF08FB2B747002093874752AA971CC8AA
:1020200023003401B3C704082315F400370700D098
:1020300003470700A300E4007D572314E4002312A4
:10204000E400BA972311F400814721A81388F7FF11
:102050008328440133A7F720336717212310070192
:102060008507E3E597FEB787F4BFCA9793B71700D4
:1020700037570020B3C737211307C7D8B3C7E720A6
:1020800080C337260010130686C7CE854A850D37D4
:10209000F2406244D2444249B24905618280B74766
:1020A0000020938747BD9C4B91C7374500201305FF
:1020B00045BD8280411106C6B79600109386463D05
:1020C00037A60010130606BB93055006379500107F
:1020D00013054539EF20401F411106C622C426C210
:1020E0004AC02A841C49737504301398370033188A
:1020F0000029F19BAFA80745B3F80801E39C08FE4F
:102100000F003003031924005C48B3242921B3E4F1
:10211000F42063460900839704002311F4001C484F
:102120000F003003238007009377850073A00730EA
:102130006341090894C8D8C88CC4D0C483D524008E
:102140008505B3C50508A167FD17FD8D91E185459E
:102150002391B4004A85C5341C48737704309396A4
:102160003700B316D028F19B2FA6D744758E6DFE8D
:102170000F003003835744002390F40023122401FE
:102180001C480F003003238007009377870073A05B
:1021900007305C4403470400938747043317E02863
:1021A0008966B69798C3B2402244924402494101DD
:1021B00082807D55CDBF011106CE22CC26CA4AC8E9
:1021C0004EC652C42A892E84B284B6893A8A99EBC3
:1021D00095293305A4403335A400B385B440898DD7
:1021E00063C005025287CE86A28526864A85ED35D4
:1021F000F2406244D2444249B249224A0561828097
:102200000145FDB7011106CE22CC26CA4AC84EC6EA
:1022100052C42A8AAE893289B6843A844935A28763
:102220002687CA86D2854E867937F2406244D244E8
:102230004249B249224A05618280AA8713D70541E3
:102240008356A500635ED70654493327E7203367DA
:10225000D720144973760430139536003315A0281F
:10226000F19A2FA8A6443378A800E31C08FE0F00BB
:1022700030038356270033C50608B3C505086388B5
:10228000B6020145984B0F00300323000700137777
:1022900086007320073015C5D84783C6070093070B
:1022A00047043317D0288966B69798C382801315E0
:1022B000F5282311A70005472383E7003A85D9B7FE
:1022C00001458280411106C622C42A84C93BA285E9
:1022D000AD37B2402244410182800345150082801F
:1022E000011106CE22CC26CA4AC84EC6F32750BEDC
:1022F0001397070163580704AA842E849309A5FF46
:1023000033B9A9009387F5FF3E9963E6250163166B
:10231000B90063743501814901492D263385A940EF
:10232000B3B7A900B305B9409D8D6344B0028DC118
:102330002685A285152EF2406244D2444249B24914
:1023400005618280379500101305853FEFE09FEB14
:1023500065D101478146372600101306C6C34E8556
:10236000CA854D35635E0502E1B783A73181737776
:102370000430139637003316C028F19BAFA5C7442D
:10238000F18DEDFD0F00300383A731810F00300385
:10239000238007009377870073A007303320000065
:1023A000B7070B40DC53E3E227FDB7060B4094561A
:1023B000E3F036F9E31EF9F64DBF411106C622C41B
:1023C00026C22A84AE84BD2C229533348500A6957E
:1023D000A29563C805002937B240224492444101C6
:1023E00082807D55B7050080AA95F5B7411106C6D4
:1023F0009307803EB335F5023305F5027D3FB240C9
:1024000041018280011106CE22CC26CA2A84AE84E4
:10241000F32750BE13970701635E070A4AC84EC6EA
:10242000BD395C453E8783470500BE893A893A85B8
:102430006522B307A440B336F400B385B4403E87A9
:10244000958D93874900B3C727219C43898F814687
:1024500063C8D5026384B60233200000B7070B407F
:10246000DC5363E5970AB7060B40945663F4860A7B
:10247000638AF40805454249B249B5A8E37EF7FCF2
:1024800001478146372600101306C6C32285A6855C
:10249000953B6355A008B7070B40DC5363E99700F1
:1024A00037070B401857637687006394F400332096
:1024B0000000093DB7070B40DC5363E1970A37077B
:1024C0000B4018576370870A6386F4080545424934
:1024D000B24915A0B7070B40DC5363EDB700B70650
:1024E0000B40945663FEA6006384F500054521A0C9
:1024F000014511A00145F2406244D2440561828049
:102500000545D5BF01454249B249F5B701454249A4
:10251000B249D5B705454249B249F1BFB7070B40AB
:10252000DC5363E19702B7060B40945663F08602D2
:102530006386F40005454249B24975BF01454249E9
:10254000B24955BF01454249B24975B705454249AF
:10255000B24955B701454249B24971BF01454249A7
:10256000B24951BF05454249B24971B737050B40E1
:102570008280411106C6B7470020938747BD9C4B18
:1025800089CBA94513853181EFF0CFD6B240410107
:10259000828022C4E13F2A848D452128C1460D4610
:1025A000A28537450020130545BDEFF01FA5224445
:1025B000C9BF411106C6B787F4BFAA9793B71700E2
:1025C0003796001013068644138571813E95EFE01F
:1025D0003FCBB240410182802A875C510857BE85BB
:1025E0005C53E39DF5FE82805C5111A05C51E3EFEA
:1025F000C7FE11A05C516395C7001C55E3ECB7FE04
:102600008280411106C622C426C24AC02A892E846D
:10261000B284D9372E87B3058500B3B7A50033063A
:1026200097003E966366E6006316C70063F4A50054
:10263000FD552E864A854D3FB240224492440249C0
:1026400041018280411106C637050B407137B24007
:1026500041018280411106C62E86AA8537050B40AE
:102660004D37B24041018280411106C62E86AA85AF
:1026700037050B40953FB24041018280B787074044
:10268000630FF50069473317E028B737024098C356
:10269000B70702409C47B377F740FDFB82806D4748
:1026A000DDB7411106C622C400599377140091E7A3
:1026B0002285B24022444101828026C2930705034D
:1026C0000D67BA971307103098C35C5118559A07D5
:1026D000BA97AA07BE8419459924B7872B8F938789
:1026E00057B73335F5022D8133D5A40281459D3787
:1026F00092447DBF411106C622C426C24AC02A8424
:10270000AE843289793F9307C4025854B3C5E400BC
:1027100033F625010567BA9790C308D8B240224422
:102720009244024941018280411106C622C426C258
:102730004AC0AA842E841945DD2293173500B3D7E9
:102740008702850713D97700630B09004167791762
:10275000636C270385834A8413F9F70311A00544AA
:10276000C0D023A42403014681452685613719453D
:102770007D220A051A044A9433558502B240224448
:102780009244024941018280014941647D14C9BFDC
:10279000411106C69387B5FF96077D160E06D18FA9
:1027A00099C693E727000547638BE6008146130629
:1027B000E006B3E5F6003D3FB2404101828091461C
:1027C000FDB791CD2947B787F8BF3E951335150062
:1027D0009387B1813325F5202310E500828013070C
:1027E0000010D5B7411106C622C426C22A84AE8481
:1027F0001945352231C1B78707406304F404E9471E
:10280000B317F028372702401CC32285853D814538
:102810002285453FA6852285013F1307C4025C54EB
:1028200093C7070793F7E707856636971CC3930797
:1028300010301CD88D473CC4B24022449244410120
:102840008280ED4775BF00003328A520B7070140FF
:102850003348F8208327480063F4E7002322E80088
:102860009308C5FF854763FC17078D67C29713134D
:10287000B02823A06700B757002093874792B3473B
:10288000F52003A3070063010302B75700209387D5
:102890004792DC4BB3D767028507B3A7F720010047
:1028A0009387E7FFE3DE07FE1606832708003D8EC9
:1028B0001376060E8567C29790C30546637D16039F
:1028C0008967C2971316B02890C32322E800B75730
:1028D0000020938747923345F52014C18280E39608
:1028E000F5F88D67C2970D4323A067008327880002
:1028F000858BEDDF55BF032608002D8E0D8A90C312
:10290000832788003316B028F18FFDDB55BF010007
:10291000411106C641670D3FB24041018280B75761
:102920000020938747923345F5200841828041116A
:1029300006C6B727B700938707B0B3D7B70237F8F3
:102940004BD3130808883298B708AA3293880888AE
:1029500063E20809B358F602138308FF1308001353
:10296000636968081388F6FF19436363030B130850
:10297000F7FF636F03091182636BF60AC206320721
:10298000D98E1C4163C5070CB78705406303F50E5C
:1029900039473317E028B727024098C3B7370240BA
:1029A00098C3B70702409C47B377F740FDFB0CC1C3
:1029B00023241501130745008D673E9793071002E6
:1029C0001CC31C41E3DF07FE54C5A1471CC3B24032
:1029D00041018280B79600109386C64637A6001044
:1029E000130606BEC545379500101305C54BEF10FD
:1029F000B00DB79600109386465037A60010130608
:102A000006BEE545379500101305C54BEF10D00BFA
:102A1000B79600109386065237A60010130606BE1E
:102A2000F145379500101305C54BEF10F009B79627
:102A300000109386C65637A60010130606BE9305EF
:102A40003002379500101305C54BEF10F0071C41FD
:102A500093F7F703E39AB7F21C4505677D17F98FE3
:102A6000E39417F35C4537770700F98FE39ED7F0BF
:102A7000B9BF3D4739BF03A7F181B7870D40D8C320
:102A80008280B7B70D403707004098C337A7014091
:102A9000B7070002CD171CC789CDB7A70D40370770
:102AA000000798C309EDB7A70D403707008098C30A
:102AB0008280B7B70D403707000798C3E5B74111CB
:102AC00006C63345A5203345A5203345A5200E0570
:102AD000A3AFA180B70700016365F500FD17A3AFA1
:102AE000F180513FB7A70D403707004098C3B2406F
:102AF00041018280411106C6AA87328537B70D4051
:102B0000B706004014C38DC7B7860D4037C707B05E
:102B10001307370DD8CE3747F84F1307D7F23D8F3D
:102B200098D2CCD29CD68145A93FB2404101828047
:102B3000B7870D4023AE0700FDB737871040B32796
:102B4000A520B3C7E720CCC33E8585471CC1828042
:102B5000011106CE22CC26CA4AC84EC6AA892E89A1
:102B6000B2843684A16783D7A7DF85451165130535
:102B700025258297AA87A2862686CA854E858297B2
:102B8000F2406244D2444249B24905618280411117
:102B900006C6A16783D7A7DF85458297B24041016A
:102BA0008280411106C6AA866347050093E70502A5
:102BB00001CA93E505032E86A94513052010493F58
:102BC000BE85D5BFB7170E4083A78782E5DF0F000C
:102BD00030038280014721A8B787031093873720ED
:102BE000BA978A070F00300323A0070005079D4707
:102BF000E3F4E7FE8280411106C6E93FB24041019D
:102C00008280378704408567938707AA1CC3930790
:102C1000A0115CC7B7A7044037B7FA0098C3B787BD
:102C20000440DC43E3DD07FE8280411106C622C476
:102C30002A8421A01C4082971104B7970010938723
:102C400047CBE369F4FEB240224441018280828096
:102C5000411106C6379500101305C5C7F937B240B4
:102C600041018280411106C637950010130545CAFF
:102C70006D3FB2404101828037270240B747EFEFF6
:102C80009387F7B71CC337370240B707F403D91748
:102C90001CC3B70702409C473707F4035917B377A3
:102CA000F740E5FB8280B7071150F847A16763033F
:102CB000F7008280B727115037070400F8C78280D9
:102CC00037370240B7070020FD171CC3B707024083
:102CD0009C47370700207D17B377F740E5FB8280DC
:102CE000411106C61565130535255535AA871145C9
:102CF0008297B24041018280411106C615651305D5
:102D000035257135AA8705458297B24041018280F9
:102D1000411106C6EFE0CFE6B24041018280411189
:102D200006C622C426C21145DD3EB7E71B43938782
:102D300037E8B334F502C980014429A0A68522856D
:102D4000ED3B05049547E3DB87FEB2402244924405
:102D500041018280411106C6B707014023A207083E
:102D60004D35B73701400547D8DFB7070140F84375
:102D70008547E31CF7FEB73701400D4798DBB707DF
:102D80000140985F8547E31CF7FE094795463736B3
:102D90006859130606F0BE8537050540EFF03FB9C8
:102DA0001547BA8637968647130606C08545378588
:102DB0000540EFF0DFB7B726B700938606B00146AF
:102DC00089451145EFF0DFB4B7D6F00893860618B1
:102DD000014685451545EFF0BFB3B776DC02938613
:102DE00006C0014681452145EFF09FB2B776DC026F
:102DF000938606C0014681452545EFF07FB1B7D6E1
:102E0000F00893860618014681451945EFF05FB03A
:102E1000B7D6F00893860618014681451D45EFF0A8
:102E20003FAFF53DB240410182806375D600B29557
:102E30002380A5008280828009C9411106C69C4179
:102E4000CC418297B240410182808280AA860145AE
:102E500021A83345A520930717009CC2834707008C
:102E60003325F520130505FD984283470700938716
:102E700007FD93F7F70F2546E37DF6FC8280797115
:102E800006D622D426D24AD04ECE52CC56CA5AC8E2
:102E90005EC662C4AA842E89B28BB689BA8A3E8481
:102EA000428B13FC280063110C0493F81800639DF7
:102EB000080266C23E8A11A8930C1600CE86CA8507
:102EC000130500028294050A6686E3676AFF924C46
:102ED00021A87D14B3878A00130A1600CE86CA85FE
:102EE00003C50700829452866DF463170C02328585
:102EF000B250225492540259F249624AD24A424B89
:102F0000B24B224C4561828013041600CE86CA85DE
:102F10001305000282942286B3077641E3E667FF39
:102F2000F9B7411106C6C28FC68E424F5248E248D9
:102F300013F32800631F03046305080213F318004A
:102F40006301030263960F0013F3C800630B0300D1
:102F50007D1801A83303F700130E00032300C301FB
:102F6000850713B3070263F4E701E31503FE13F3C8
:102F700018006300030213B3070263FC0701630A2E
:102F800003003303F700130E00032300C30185077A
:102F9000F9BF13F30801630D030813F30840631C22
:102FA0000304B1CB3383E74113331300338E07415E
:102FB000133E1E003363C301630F0302138FF7FF39
:102FC0003333E001138E0EFF133E1E003373C30133
:102FD00063020302F91713F30802631B03067D4E15
:102FE0006368FE063303F700130E80072300C30156
:102FF00085072DA0FA874143E38F6EFCF91E93BE2F
:103000001E0013B30702B3FE6E0063890E00330384
:10301000F700130E20062300C30185077D43636577
:10302000F3023303F700130E00032300C3018507E7
:103030007D43636BF300638D0F023303F700130EC0
:10304000D0022300C30185071D3DB24041018280AB
:10305000414EE395CEFBE30303FA7D43E360F3FACD
:103060003303F700130E80052300C30185077DB7E6
:1030700013F34800630A03003303F700130EB00292
:103080002300C3018507C9B713F38800E30E03FAD1
:103090003303F700130E00022300C30185076DB749
:1030A000397106DEBE8F164F19E3137FFFFE937E44
:1030B0000F4063830E0425C3814E3DA813730F0296
:1030C000630803041303100472931373F30F59136B
:1030D0001373F30F93871E00138E0E03B30E2E008F
:1030E00023806EFE335E070313B307026366070394
:1030F00063040302BE8E7287337E0703137EFE0FC6
:103100002543E36DC3FB130E0E031373FE0FD9B7F4
:103110001303100655BFBA877AC406473AC246C0A1
:10312000C2887E881808F53BF250216182801971AF
:1031300086D6A2D4A6D2CAD0CECED2CCD6CADAC82F
:10314000DEC6E2C4E6C2EAC06EDEAA8B2E8CB28C6A
:10315000368D3A89BE84C28DC6DEC68A8A493A4B0C
:10316000D98F99E3137BFBFE13740B401DCCB3671F
:103170009900C9C7014415A893770B0291CB930717
:103180001004AA9793F7F70FD91793F7F70F3DA8F5
:1031900093071006FDB7814793F7F70F13370A021D
:1031A000B9CF31CF52842A89AE845686CE864A85DD
:1031B000A68597E0FF0FE780001F1375F50FA54761
:1031C000E3ECA7FA130505039377F50F130A140030
:1031D00013070403330427002300F4FE5686CE862B
:1031E0004A85A68597E0FF0FE78000E58547E3E481
:1031F00034FBE39399FAE37159FB71BF014A5AC456
:10320000AA473EC29A473EC0D6886E88D287180821
:10321000EA866686E2855E852933B6502654965442
:103220000659F649664AD64A464BB64B264C964C4A
:10323000064DF25D09618280597186D6A2D4A6D26C
:10324000CAD0CECE2A842ECA32CE36CCBA893AD053
:103250003E893ED242D4C6844E86CA864E85CA85F1
:1032600097000010E7804058631F052CB7A7001097
:1032700003A6871E83A6C71E4E85CA8597F0FF0F3B
:10328000E780404E6341A02CB7A7001003A6071F9C
:1032900083A6471F4E85CA8597F0FF0FE780005A27
:1032A0006343052AD2CCD6CADAC8DEC6E2C4E6C277
:1032B0006EDE01468146025992594A85CE8597F0C5
:1032C000FF0FE780A0576344052A8257BE8B9257B1
:1032D000BE8DC65793F707403ED699E399473ED433
:1032E000DE8A6E8BB3E7BB0163880728EAC013D57B
:1032F0004D011375F57FB7071000FD17B3F7FD00FB
:103300003707F03F33E9E700130515C097000010B9
:10331000E780C05CB7A7001003A6871F83A6C71F5E
:1033200097F0FF0FE780605FB7A7001003A60720A4
:1033300083A6472097E0FF0FE78080422A8AAE8964
:10334000B7A7001003A6872083A6C7205E85CA857D
:1033500097000010E780A0B6B7A7001003A60721CA
:1033600083A6472197F0FF0FE780205B2A86AE8671
:103370005285CE8597E0FF0FE780803E97000010D2
:10338000E780404A2A8C97000010E78020552A8A5F
:10339000AE89B7A7001003A6872183A6C72197F09F
:1033A000FF0FE7808057B7A7001003A6072283A668
:1033B000472297E0FF0FE780A03A97000010E780D0
:1033C00060462A89B7A7001003A6872283A6C722D2
:1033D0005285CE8597F0FF0FE78020542A8AAE8968
:1033E0004A8597000010E780604FB7A7001003A63A
:1033F000071D83A6471D97F0FF0FE78000522A861E
:10340000AE865285CE8597000010E78040AB2A8AB1
:10341000AE892A86AE8697F0FF0FE78000502A8B90
:10342000AE8A1309F93F52095286CE865285CE855F
:1034300097E0FF0FE780C0322A8DAE8C5286CE8691
:10344000B7A7001003A5072383A547239700001003
:10345000E780E0A62A8AAE89B7A7001003A68723D3
:1034600083A6C7235A85D68597F0FF0FE78040BF14
:10347000B7A7001003A6072483A6472497E0FF0FF1
:10348000E780002E2A86AE865A85D68597F0FF0FF4
:10349000E78000BDB7A7001003A6872483A6C72432
:1034A00097E0FF0FE780C02B2A86AE865A85D68527
:1034B00097F0FF0FE780C0BA2A86AE865285CE8588
:1034C00097E0FF0FE780C0292A86AE866A85E685E9
:1034D00097F0FF0FE780C0B8B7A7001003A6072535
:1034E00083A6472597E0FF0FE780802701473A86AC
:1034F000CA8697F0FF0FE78040422A89AE89AA8AE0
:103500002E8B5E86EE8697F0FF0FE780A025635333
:10351000A0029307FCFF3E8CB7A7001003A6072468
:1035200083A647244A85CE8597F0FF0FE78040B3F6
:10353000AA8A2E8B93073C061307600C636CF7086E
:103540001149064D25A8C6573EC0A68822580256E6
:1035500092563287B687E2467246D24522855D2270
:10356000B650265496540659F64965618280CA8B36
:103570009397F969BE8DB1BB014C1149465793171A
:10358000470163D30706B3E76A018DCFB7A70010E1
:1035900003A6872583A6C7255E85EE8597F0FF0FD6
:1035A000E780401C63410510B7A7001003A607265B
:1035B00083A647265E85EE8597F0FF0FE7800028FB
:1035C0006353050EA257635AFC00B3878741FD176A
:1035D0003ED429A01549064D55B702D4C65793E7E6
:1035E0000740BED80149014C6377990CB387244149
:1035F000BE89C657898BBE8C81C763030900814988
:10360000630C0C005686DA865E85EE8597F0FF0F18
:10361000E78000A5AA8BAE8D0146814602579257DE
:103620003A85BE8597F0FF0FE78040216347050884
:10363000C6579397B7483EC0CE8822585E87EE871C
:10364000E2467246D245228575286305090AC657A7
:1036500093F70702BDC79307500413071500BA8AF2
:10366000624AD2862A86D249CE853E8502943307A5
:10367000804195473EC27D194AC0814829489357E9
:10368000FC013367EC0AD2865686CE852285EFF0A0
:103690003FA163940C04664AD64A464BB64B264C6F
:1036A000964CF25D75BDA257A1D3B25795DFA257D4
:1036B000FD173ED415BF81492DBF9397FD69BE8D7F
:1036C00085BF9307500651BF13091500E2462A86AD
:1036D000D2451305000202944A85F247B307F5402C
:1036E000E3E497FE664AD64A464BB64B264C964CC8
:1036F000F25DBDB5664AD64A464BB64B264C964C53
:10370000F25DB9BD197186DEA6DAE2CCE6CAEAC876
:10371000EEC6AA8D2EC832CA36CC3A8CBE8CC28474
:10372000468D3A86BE863A85BE8597000010E780B2
:10373000A00B55E1B7A7001003A6071F83A6471FDC
:103740006285E68597F0FF0FE780400F6343050A27
:10375000B7A7001003A6871E83A6C71E6285E6854D
:1037600097F0FF0FE78000006343A00AA2DCCAD8ED
:10377000B7A7001003A6872683A6C7266285E6851D
:1037800097F0FF0FE78000FE634AA00AB7A700107A
:1037900003A6072783A647276285E68597F0FF0FD4
:1037A000E780C009634C0508CED6D2D4D6D2DAD091
:1037B000DECE014681466285E68597F0FF0FE78001
:1037C000E007634C050802CE8A4793F70740638BF6
:1037D000071C014455A88A486A888D47379700100E
:1037E0001307475DE2465246C2456E85EFF02FE96A
:1037F00015A68A486A889147379700101307875D96
:10380000E2465246C2456E85EFF06FE721A68A4731
:10381000918B99CF379700101307875C91478A489F
:103820006A88E2465246C2456E85EFF04FE5DDA458
:10383000379700101307075D8D47D5B78A473EC0FD
:10384000EA8826886287E687E2465246C2456E8548
:10385000EFF09F9E6654465975AC6286E686014538
:10386000814597F0FF0FE78080652A8CAE8C8547F5
:103870003ECE99BF930704031808BA9713070003B5
:103880002380E7FEFD1405049337040213B7A40058
:103890001347170091C379FF6285E68597000010F2
:1038A000E78040F82A8997000010E78020032A86E5
:1038B000AE866285E68597F0FF0FE7804060B7A788
:1038C0000010938707C4B3E7F42003A847009C4384
:1038D0003E8AC28A3E86C28697F0FF0FE780E003E9
:1038E000AA8B2E8B97000010E780E0F9AA89970039
:1038F0000010E78020072A86AE865E85DA8597F07D
:10390000FF0FE780C05B2A8BAE8BB7A7001003A622
:10391000072283A6472297F0FF0FE780A0E46355B4
:10392000A00885094E8597000010E780A0032A862D
:10393000AE865285D68597F0FF0FE78020F063446E
:10394000A00005098149D1E44A8597000010E7806D
:10395000E0F82A86AE866285E68597F0FF0FE7805D
:103960000056AA89AE84B7A7001003A6072283A633
:10397000472297F0FF0FE78060EC634A050CB7A77A
:10398000001003A6072283A647224E85A68597F03E
:10399000FF0FE78020DD634CA00A93771900C5CBA9
:1039A000050975A0994435B5B7A7001003A60722ED
:1039B00083A647225A85DE8597F0FF0FE78000E84F
:1039C000E34305F86385090093F71900ADDF850926
:1039D0009DBFFD4763EB8704FD14B7D7CCCC93871D
:1039E000D7CCB3B7F9028D83BE86B3C7F72086075D
:1039F000B387F940130714009387070313060403E2
:103A00000C083304B6002300F4FEA54763F337091E
:103A1000B6893A847DBF13070403140836979306CA
:103A200000032300D7FEBE840504FD4763E587003D
:103A30009387F4FFEDF0FD4763EB870093070403E2
:103A40001808BA971307E0022380E7FE0504FD4734
:103A500063E48704B767666693877766B317F902EE
:103A600089871357F941998FBE86B3C7F720860718
:103A7000B307F940130714009387070313060403E1
:103A80000C083304B6002300F4FE368989C63A8454
:103A90007DBF3A8459BF3A848A47898B8DEF8A4724
:103AA000858B95CB63040D02F24781E78A47B18B82
:103AB00091CF9307FDFF3E8D11A8930704031808CB
:103AC000BA97130700032380E7FE05049337040227
:103AD0006373A401FDF3FD4763ED8700F247B9C3AB
:103AE000930704031808BA971307D0022380E7FE50
:103AF00005048A486A88A2871810E2465246C245E1
:103B00006E85EFF0CFB766544659B659265A965A85
:103B1000065BF64BF650D654664CD64C464DB64D29
:103B2000096182808A47918B99CB93070403180817
:103B3000BA971307B0022380E7FE05045DBF8A47EA
:103B4000A18BC5DB930704031808BA97130700027B
:103B50002380E7FE050471BF1D7186CEA2CCA6CAE4
:103B6000CAC8CEC6D2C4D6C2DAC02A8AAE893289C1
:103B700036CE3ACC6384056A8144F24703C5070018
:103B80006303056A13075002630DE50013841400F4
:103B9000CA862686CE85029AF24785073ECEA28443
:103BA000E9BF85073ECE014405A8930600026302E3
:103BB000D706930630026318D70013640401850703
:103BC0003ECE854A01A8814A31A0136424008507AE
:103BD0003ECE854A63870A04F24703C7070093066F
:103BE000B0026302D702E3F2E6FC9306D002E30ED2
:103BF000D7FC930600036314D702136414008507EF
:103C00003ECE854AC1BF1364440085073ECE854A37
:103C1000D1B71364840085073ECE854A65BF814ACB
:103C200055BFF24703C70700930707FD93F7F70F48
:103C3000A54663F4F6049307A0026305F704568BC8
:103C4000F24783C607001307E002638EE604F247DB
:103C500003C707009306C0066307D70A63F8E608A0
:103C6000930640076305D70E9306A0076315D70E8A
:103C70001364041085073ECEF9A86808EFF00F9D85
:103C80002A8B7DBFE247138747003ACC03AB07007E
:103C900063460B00F24785073ECE5DB713642400F0
:103CA000330B6041C5BF13640440138717003ACE3D
:103CB00003C71700930707FD93F7F70FA54663F2B5
:103CC000F6029307A002E314F7F8E24713874700D0
:103CD0003ACC83AA0700B3EA0A0AF24785073ECE28
:103CE000BDB76808EFF08F96AA8A95B7930680064D
:103CF000630DD7029306A006631FD7041364042044
:103D000085073ECE89A813660410138717003ACEA4
:103D100083C617001307C0066384E600328425A813
:103D20001364043089073ECE3DA013660408138750
:103D300017003ACE83C61700130780066384E60097
:103D4000328411A81364040C89073ECE29A01364A1
:103D5000041085073ECEF24703C5070093075006BF
:103D60006305F50A63E6A712930760046305F51679
:103D700063FFA70293073006631BF5065EDE098822
:103D80006300043A854AE247138747003ACC938B95
:103D90001400CA862686CE8503C50700029A631DD5
:103DA0000438F24785073ECEDE84F25BF9B3930711
:103DB0005002631FF50013841400CA862686CE8540
:103DC00013055002029AF24785073ECEA28475B3CE
:103DD00093075004630BF50213841400CA862686E9
:103DE000CE85029AF24785073ECEA28479B363E876
:103DF000A706930780056308F5069307200663046A
:103E0000F50693077004E319F5FC930795FB93B748
:103E10001700130795F9133717005D8F19C3131493
:103E2000B4281307B5FB13371700D98F99C3136450
:103E30000402E2479D07E19B138787003ACC984331
:103E4000DC4322C0DA885688CA862686CE8552850B
:103E5000EFF08FBEAA84F24785073ECE39BB9307A9
:103E60004006E31BF5F6930785F893B71700130791
:103E700085FA13371700D98FCDEF9307F006630B40
:103E8000F512930720066309F5123D9829485DA0B5
:103E900093070007630CF53463F5A7029307300717
:103EA000631EF5065EDE62DC66DA6ED6E2471387D5
:103EB00047003ACC03AC0700639B0A2A7D57E28790
:103EC00059A493077006E302F5F463E0A70493078F
:103ED0006006E313F5F0930760046301F522E247FF
:103EE0009D07E19B138787003ACC9843DC4322C0AF
:103EF000DA885688CA862686CE855285EFF09F805E
:103F0000AA84F24785073ECE8DB993079006E30C4D
:103F1000F5F49307F006E308F5F47DBDE36EF5EAEA
:103F200093075007E301F5F493078007E30DF5F2DB
:103F300065B54148930780056302F508930775F955
:103F4000B337F0001307C5F93337E000F98F91C399
:103F50004D989377044091C37998930775F993B777
:103F600017001307C5F913371700D98FF5C79377D3
:103F70000420A1EB93770410D1EB93770404CDCF09
:103F8000E247138747003ACC03C70700B306E04077
:103F900022C25AC0D6889357F7013367D70ACA8618
:103FA0002686CE855285EFF0AF8FAA84F24785072B
:103FB0003ECEE1B62148BDBF0948ADBF136404023F
:103FC000B5BFE2479D07E19B138787003ACC984332
:103FD000CC4393D6F541B3C7E60033C6B60033876A
:103FE000D740B3B7E700B306D64022C65AC456C27C
:103FF00002C0C28813D8F501B387F640CA86268668
:10400000CE855285EFF0AF92AA844DB7E247138771
:1040100047003ACC9843B306E04022C25AC0D68843
:104020009357F7013367D70ACA862686CE8552850D
:10403000EFF00F87AA849DBF9377040881CBE247F6
:10404000138747003ACC0397070089B7E2471387E5
:1040500047003ACC98431DBF937704208DEB9377AC
:104060000410A1EF93770404B5CBE2471387470010
:104070003ACC03C7070022C25AC0D6888147CA86F5
:104080002686CE855285EFF0AF81AA8405B7E24738
:104090009D07E19B138787003ACC9843DC4322C6F7
:1040A0005AC456C202C0C2880148CA862686CE8536
:1040B0005285EFF0CF87AA84D5BDE247138747002A
:1040C0003ACC984322C25AC0D6888147CA862686EF
:1040D000CE855285EFE0DFFCAA84C9BD9377040842
:1040E00081CBE247138747003ACC03D7070061B77B
:1040F000E247138747003ACC9843B5BF13640402E4
:10410000F9BB938B1400CA862686CE851305000260
:10411000029AD687DE84938A1700E3E467FFA5B18D
:104120008547D5BF93841B00CA865E86CE8513055E
:104130000002029AA28AA68B13841A00E3E46AFFA3
:104140008DB18507368783C6070081C69306F7FFC2
:104150006DFBB38B8741937C044063840C00B3DB1D
:104160005B0B93772400BE8DA1E36AD831A85687F4
:10417000B9B3938714003E8DCA862686CE85130573
:104180000002029AA28BEA8413841B00E3E36BFF14
:10419000A28B425D11A8BE8A050C13841400CA8646
:1041A0002686CE85029AA28403450C0019C5E385B4
:1041B0000CFE9387FAFFE3900AFE63940D02F24728
:1041C00085073ECEF25B625CD25CB25D7DB2938AC3
:1041D0001400CA862686CE8513050002029AA28B99
:1041E000D68413841B00E3E46BFFD1BF1364140275
:1041F000E247138747003ACC984322C2A1473EC00A
:10420000D68841488147CA862686CE855285EFE00A
:104210003FE9AA84F24785073ECE85B2373A0010BF
:10422000130A6AE391BA63E324031306F9FFCA860B
:10423000CE850145029A2685F6406644D644464915
:10424000B649264A964A064B256182802686C5B71E
:10425000397106CE32D436D63AD83EDA42DC46DE62
:1042600038103AC6AE867D56AA853735001013053C
:10427000A5E2EFF07F8EF24021618280011106CE2F
:1042800036872AC42EC6B2867D562C0037350010DC
:10429000130585E3EFF05F8CF240056182800D45E8
:1042A000731025BE7D15E35D05FE056513050580CC
:1042B00073104530736004307310003482800290B4
:1042C000FDBF411106C6E53F411106C62E88B685E1
:1042D00019CEB287379700101307075EC2862A8669
:1042E000379500101305055F3D2E0545C93F3797EB
:1042F0000010130707DABA87D5B7411106C622C4E2
:10430000F32750BE13970701634307000290EFE0C5
:104310003F9437940010130444CB21A01C40829793
:104320001104B7970010938707CCE369F4FEB240FD
:10433000224441018280411106C62E871C41B2856C
:104340003A858297B24041018280011106CE26CA89
:104350004AC84EC6AA89AE8432898347550189C7A7
:1043600022CC0144014525A01C41B28526858297B7
:1043700041A083C7490105A883A70900894537A53E
:1043800000101305852E8297130514000504635D44
:104390002403E35080FE9307F4FFA69783C707002A
:1043A000CD1793B71700338784008346070029474A
:1043B000E39EE6FCE1FFE35185FC83A70900B3051A
:1043C000A440269582974DBF6358250183A7090015
:1043D000B305A94026958297635220037D19CA949C
:1043E00083C70400CD1793B71700238AF9006244EE
:1043F000F240D2444249B249056182806244CDBF55
:104400001C419DCF411106C622C426C2AA8403A422
:10441000718239A090409385440022853D37004841
:1044200009C81C40EDDF83A73182EDD7E39987FEF1
:10443000D5B723A00400B2402244924441018280B7
:104440008280411106C622C426C2AA842E849841C5
:1044500093070008630EF7001C401387170018C06D
:104460003E9423029400B24022449244410182804F
:104470002E857937D5B7411106C6EFE0AF9CB74717
:104480000F0093870724AA9733B6A7002E96634E92
:104490000600BE8537450020130545F397C0FF0F82
:1044A000E78060C6B24041018280FD573706008038
:1044B0003E96C5B7411106C637450020130545F3A2
:1044C00097C0FF0FE78080CCB240410182807971B4
:1044D00006D622D426D24AD04ECE52CC56CAAA896B
:1044E000AE84328A3684413FAA8AFD57638AF4003B
:1044F00009CC374900101309A93403A4718221A8FB
:104500004E85EF40004EAA84E5B7374900101309E5
:104510006933E5B700481DC41C40EDDF83A7318235
:1045200099C3E39987FE2686CE8522850299E30307
:104530000AFEA947A307F10005469305F10022856D
:104540000299C9BF639C0A002685B2502254925436
:104550000259F249624AD24A45618280A13FEDB7D1
:1045600083A771821387718221A0138707019C4B57
:1045700091CB1C43E39BA7FE81E91C491CC3232864
:104580000500828091C108C38280411106C622C401
:1045900003A4718211A0004809C45C40EDDF82973A
:1045A000DDBFB240224441018280411106C611297B
:1045B000B24041018280411106C622C426C2AA84AB
:1045C000EF4020422A8485463686AA852685013713
:1045D0006D3F2285B2402244924441018280717134
:1045E00006D722D526D34AD14ECFAA892E89613546
:1045F000AA8402C66000CA864E86A285374500108E
:1046000013052544EFF09FC72A892285D53BB53F86
:1046100089E84A85BA502A549A540A59FA494D6190
:104620008280493DFDB7397106CE2ED232D436D6BE
:104630003AD83EDA42DC46DE4C102EC64D37F24008
:10464000216182808280A3850182828003C7550018
:104650009307F00F6313F70283C765008DE303C769
:1046600075008547631FF700A14763FEC70003C7B6
:104670002500A385E1822545828001458280014590
:104680008280014582800145828005458280854780
:104690006396F5060347460083475600A207D98F65
:1046A00003C7B1826384E70001458280411106C6D9
:1046B000834716006389B70009476389E70201450C
:1046C000B240410182808345260083473600A2071D
:1046D000DD8D93F7071089CB13D5950013D6954838
:1046E00093F5F507EFE0EFCB7D55CDBF1306400600
:1046F00081450145EFE00FC00545D9B705458280EA
:1047000037A50010130585D5828005476390E50421
:10471000B28783461600639DB60283464600034770
:1047200056002207558F9D466304D70001458280BD
:10473000411106C69306600A37A60010130606CB81
:10474000BE85EF103048B24041018280054582802D
:104750000145828085472300F50037A50010130529
:1047600005C9828003C7050083C71500A207D98F3A
:1047700003C7250042075D8F83C73500E207D98F45
:104780001307004B6383E7008280411106C6014690
:1047900081457D55EFE0EFC0A3A5A184A3A3B1841B
:1047A0008280411106C6EFD0FFE9B7470F0093871B
:1047B0000724AA9733B6A7002E96634B0602BE8540
:1047C0001385F18497C0FF0FE780E09319CD8145F1
:1047D0007D55EF10B0080145EF2060056DF9138598
:1047E000F18497C0FF0FE780609AB2404101828058
:1047F000FD57370600803E96D9B7411106C603C55E
:10480000B183EFC0BFD7B24041018280411106C6DB
:1048100022C426C283A7F183B9CB73770430939661
:104820003700B316D028F19B2FA6D744758E6DFEA6
:104830000F0030039387F183D8C3238E01829C43FA
:104840000F00300323800700218B732007300144C1
:10485000814403C5B183EFC0FFCE11ED0144814413
:104860002285A685B24022449244410182801304ED
:10487000803E8144F9BF03C5B183EFC03FD0CDB7BF
:10488000011106CE22CC26CA4AC84EC652C456C210
:104890002A892E84B284B6893A8ABE8AEFD09FDAFA
:1048A0003308A40033348800B387B400C2853306CC
:1048B000F40063410602D6875287CE864A85EFD040
:1048C0009F8FF2406244D2444249B249224A924AFE
:1048D00005618280FD55370600802E96E9BF0111E3
:1048E00006CE22CC26CA4AC84EC652C42A8AAE89EF
:1048F0003289B6843A84EFD08FFAA2872687CA8697
:10490000D2854E86B53FF2406244D2444249B24914
:10491000224A05618280411106C681451385F184D2
:1049200097B0FF0FE780006E39E583A7F183A9C335
:104930007377043093963700B316D028F19B2FA6D7
:10494000D744758E6DFE0F0030039387F183D8C373
:1049500083C6C18393F6F60F8545238EB1829C43AF
:104960000F00300323800700218B7320073085CE92
:10497000B2404101828022C481457D55EF10006E16
:104980000145EF10B0632A841385F18497B0FF0FBF
:10499000E780C07F1DC083A7B18495C303A5718440
:1049A00082972244F1B72E87375600101306C6802F
:1049B0001305803E8145253765BF224455BF2244FB
:1049C00045BF411106C622C4B70700D08043EFD0CF
:1049D0000FEDEFD09F9063108508B7A7001083C735
:1049E000873081450145EF20702F83A7F184C1C72F
:1049F0000545EFD06F8DA38DA182B755001093852B
:104A000065911375F50FEFC07FBB854503C5B18375
:104A1000EFC09FB53945EFC0DFB82A8435C10545E1
:104A2000EFC0FF93AA851385F183EFD0EF9701467E
:104A3000B74500109385A57F3945EFC0BFBF8545B9
:104A400037450020130585DAEFF09FB12285B2408B
:104A5000224441018280B79600109386066237A6F1
:104A60000010130686D89305600C379500101305C7
:104A70008562EFF07F851385F184EFD08F888DBF3D
:104A80009387F18323A0070023A2070005478146EF
:104A9000375600101306C6801305803E81458135C8
:104AA0001345F5FF1354F501E35205FA49BF4111CF
:104AB00006C60145EF10504CB240410182804111C1
:104AC00006C622C426C22A84AE84D53741C1014518
:104AD000EF10D04E3DCDEFD0FFB6B7470F00938714
:104AE0000724AA9733B6A7002E9663420604BE8514
:104AF0001385F18497B0FF0FE780E06031CD453F2B
:104B000009C50145EF10904B05E981457D55EF1032
:104B1000E054F5573E841385F18497B0FF0FE7808A
:104B2000E0662285B2402244924441018280FD57D2
:104B3000370600803E9665BF2686A2850145EF10A8
:104B4000504A2A8469F9F5573E84F1B7F5573E84F7
:104B5000C9BFF5573E84F1B7F5573E84D9B7011167
:104B600006CE26CA4EC6AA89AE84EFD0BFADB747DF
:104B70000F0093870724AA9733B6A7002E96634F9A
:104B80000600BE851385F18497B0FF0FE780A0571C
:104B900019E9F240D244B24905618280FD573706D7
:104BA00000803E96F9BF21375DE181460147A3A908
:104BB000D182A3ABE1821385F18497B0FF0FE78028
:104BC000E05CC1BF81457D55EF1040490145EF10C4
:104BD0001046F13D41C50145EF10105C31C1635CE9
:104BE0009406338984400145EF10105B634325012F
:104BF0004A8569D92A86B38589000145EF1090530B
:104C00002A8981457D55EF1060450145EF103042FE
:104C10004A94EFD03FA3A3A9A182A3ABB182C1B7AD
:104C2000EFD05FA203A7318383A67183B7A70700E4
:104C300093870712BA9733B7E70036976363B702D3
:104C4000E39FE5F8E3FDA7F862444249ADB722CC03
:104C50004AC8014469B762444249B1BF624442490B
:104C600099BF6244424981BF37A50010130545E052
:104C7000828037A50010130505DB8280411106C62E
:104C800022C42A84B757002083C7C7EA9DCB29E0F6
:104C9000B75700209387C794130790402391E700EC
:104CA000854785078607B3C70708375500201305D2
:104CB000C59493E707302310F500B2402244410128
:104CC0008280C545375500201305C5EA7D20C1B750
:104CD000954763EE8702B7A70010938787D93344BF
:104CE000F420104081474947E36DF7FA3307F60097
:104CF00083460700DDD68507375700201307C79482
:104D000033A7E7202310D70093F7F70FE9BF01453A
:104D10006DB7397106DE156513057534EFD03FE7C1
:104D2000AA870546A5456800829791476314F50058
:104D3000014735A8B79600109386866B37A60010FA
:104D4000130686E39305F002379500101305056CF2
:104D5000EFF08FD7BD47998F938707038A9783C654
:104D6000C7FD93877185BA972380D70005079D47B4
:104D7000E3D2E7FEF2502161828099C1014715A874
:104D8000411106C6B79600109386067137A600102B
:104D9000130686E19305B003379500101305056CE3
:104DA000EFF08FD293877703B306E5002380F600F8
:104DB00005079387F5FF6379F702BD4763E6E702CE
:104DC0009356170093877185B69783C707000546EA
:104DD000B376E6408A06B3D7D740BD8BA546E3C37A
:104DE000F6FC93870703C9B73A9523000500828034
:104DF0009376F507935775003757002033A8F620B0
:104E000016081307479742972301A70013C51700F9
:104E1000A300A700A3010700231CB700A30DC70030
:104E2000B9EF13963600110637071050130707081D
:104E30003A9637570020B3A5F620960513074797F3
:104E40002E9710C73757002033A6F62016061307F3
:104E5000479732971847232007009DEE37570020C9
:104E6000B3A7F6209396570093074797B69723A2C8
:104E700007003707105013070710D8C7828037067E
:104E800010501306060833E6C620375700201307D4
:104E90004797429710C77DB79DE31387F6FF0E072C
:104EA0001107370610502106329737560020B3A657
:104EB000F620960693074697B697D8C38280138646
:104EC000F6FF3707105021073366E62037570020DA
:104ED000B3A7F6209396570093074797B697D0C38A
:104EE0008280835785019387F703998393966700A0
:104EF0000346B5010947630DE60083A731865CC50B
:104F0000B697A3A1F1863717105063F6E7008280A9
:104F100093967700DDB7411106C6B79600109386C9
:104F2000867137A60010130646E8930520053795CD
:104F300000101305C575EFF02FB9011106CE22CC74
:104F400026CA4AC84EC69374F50713547500B3A712
:104F5000842096073757002013074797BA97BE89D2
:104F6000EFF01FE981E8F2406244D2444249B2497D
:104F70000561828083D589014E85A53783C7B90134
:104F8000EA0703A7C900B7061050358FD98F93974A
:104F9000F72903A749001CC3F9B7411106C6937747
:104FA000F5071D81B3A7A7209607375500201305E5
:104FB00045973E955524B24041018280411106C675
:104FC00001E985453945EFC02FDAB24041018280C1
:104FD000B79600109386C67C37A60010130646E7E6
:104FE00093057019379500101305C575EFF0CFAD17
:104FF000411106C609E90146814513050008713FC4
:10500000B24041018280B79600109386C67C37A6D5
:105010000010130646E69305101A37950010130585
:10502000C575EFF06FAAB72711504167F8C78280A6
:10503000411106C622C426C235E92A84F92AB704DA
:105040001150B147BCDC1306F00FB7050020938563
:10505000A52E3945EFC00FDE1306000481453755F4
:10506000002013054597EF30C07E014693050004EC
:105070000145E13501469305000413050008EFF0F2
:10508000DFEB97B0FF0FE780E0168547BCC0B7079E
:105090000020FCC4F567C10723A8F4082285613706
:1050A0000545B2402244924441018280B7960010E7
:1050B0009386C67C37A60010130686E99305301642
:1050C000379500101305C575EFF00FA0A38FB184BD
:1050D00099C5B72711503707020023A8E708828037
:1050E00083C7050013F7F70109EB93F7070691E76C
:1050F00003C7150095476303F700828003C72500A7
:10510000B707115098C3828003C635000D8A054742
:105110006305E602411106C6AE8703C7450083C595
:105120005500A205D98D93F5F57F03C52700EFF053
:10513000DFE00545B2404101828001458280411196
:1051400006C697B0FF0FE780E00AB24041018280B7
:10515000411106C611E92E85B2853686EFF0FFE3D0
:105160000545B24041018280B79600109386C67C07
:1051700037A60010130646E593054020379500102A
:105180001305C575EFF04F94411106C613F5F507E9
:1051900001E993D7750085EB0947B7271150B8D7B8
:1051A0009D813325B52016051316B0288145B757C4
:1051B0000020938747973E9597B0FF0FE7804054B4
:1051C000B240410182800547C9BF13F5F50711E1DF
:1051D0008280411106C69D813325B5201605B7573B
:1051E0000020938747973E95A30105000146FD7572
:1051F0009385F57F97B0FF0FE7808050B240410163
:10520000828001A803C705002300E5008505050588
:105210003E869307F6FF7DF68280411106C6B707EA
:105220000010372702401CC3373702401CC3B707A2
:1052300002409C4737070010B377F740EDFB056647
:10524000814537051050EF30C060B7071150254732
:10525000F8DBB24041018280411106C622C426C259
:105260004AC02A84AE8432898347A501A1E7231A64
:105270002401231B04008547230DF40004C8228564
:1052800097B0FF0FE780403219C5B7271150370795
:10529000020023A8E708228597B0FF0FE78080333C
:1052A00005C98547230EF400B240224492440249C6
:1052B000410182808345250037A500101305C58B69
:1052C000EFF06FB6228597B0FF0FE780204245B719
:1052D000228597B0FF0FE7802048F9B7411106C635
:1052E00022C426C2AA84014431A8998F960737A701
:1052F00000101307C7F6BA97DC4726858297050486
:105300001374F40F03C7B187A2879306170063C80D
:105310008602E37CE4FC83A7F18713175400BA9755
:10532000E1FF13065022B7A50010938585F337A53A
:1053300000101305458FEFF00FAF02903DA8130644
:10534000400581453745002013054554EF30605036
:105350003747002013078754FD571CC35CC31CC785
:105360005CC737470020130787551CC35CC31CC7A5
:105370005CC71CCB5CCB1CCF5CCFB24022449244B8
:1053800041018280411106C6913FEF106012B24088
:1053900041018280411106C622C426C24AC02A8920
:1053A0002E84B284C849EF1080125C482686854559
:1053B0004A858297B2402244924402494101828048
:1053C000797106D65AC82A8B1385F5FF1375F50F28
:1053D000EFF03F8A01C966C2834C15008947638597
:1053E000FC02924C1306603DB7A500109385C5F0F2
:1053F00037A500101305458FEFF0EFA2029001458D
:10540000B250424B4561828022D426D24AD04ECE41
:1054100052CC56CA5EC662C403477500B747002027
:105420009387475413565748120683C60700BD9A00
:10543000D18E2380D70013576748160793F6F60FCF
:1054400093F6F6FD558F2380E700130A9500034776
:10545000250083473500A207D98FB30BF50095A22D
:10546000034C3A0083470A003E9AA5A21306103F58
:10547000B7A500109385C5F037A500101305458F1B
:10548000EFF06F9A02900145225492540259F2496A
:10549000624AD24AB24B224C924C9DB733848A4026
:1054A0001604B7A700109387C7F63E941C484E8693
:1054B000D2855A8582972A899337950093C717001A
:1054C00033B7A90013471700F98FB9EB850493F49C
:1054D000F40F03C4B187A68A9307140063CE970C18
:1054E000E3FE84FA03A4F187939754003E945DFC95
:1054F0001306A03FB7A500109385C5F037A500108F
:105500001305458FEFF02F920290014522549254DB
:105510000259F249624AD24AB24B224C924CCDB562
:1055200085476300FC04814663FE860783472A00A3
:10553000B69793F7F70F37470020130747543E9766
:10554000034647001307F00F6316E60237470020B3
:1055500013074754BA9723829700850693F6F60FF0
:10556000E1B71848B77700109387A7BDE31DF7FA96
:10557000668C55BF13069041B7A500109385C5F002
:1055800037A500101305458FEFF0EF890290014514
:10559000225492540259F249624AD24AB24B224CE6
:1055A000924CB9BDA6864A86D285374500201305A0
:1055B0008555EF20A0194A9A83C7B187850763C52F
:1055C0005703637B7A0503471A00AD47E30AF7E800
:1055D000054C03471A009147E31AF7E8B3894B419A
:1055E000B3C909088144F5B513068042B7A5001078
:1055F0009385C5F037A500101305458FEFF0AF82F6
:1056000002900145225492540259F249624AD24A08
:10561000B24B224C924CEDB30545225492540259A0
:10562000F249624AD24AB24B224C924CD1BB8280A0
:1056300082800145828001458280411106C622C4D4
:1056400026C2AA842E8403C5250083C73500A2077D
:10565000A18319476388E70E6367F7020947638AE6
:10566000E7060D47638FE70A0547639CE700EFF005
:10567000AFDF2A8621C1C946A2852685EF00905456
:105680008DA80145BDA01D476385E7043D47639193
:10569000E702EFF0EF862A8669C18346250083473B
:1056A0003500A207DD8EA2852685EF00B05191A0BE
:1056B000014581A01306A043B7A50010938545EFCF
:1056C00037A500101305458FEFE0FFF50290014567
:1056D0000DA009476384E702B93F2A8649C1834682
:1056E000260083473600A207DD8EA2852685EF00BF
:1056F000704DB2402244924441018280EFF06FD756
:105700002A8671FD13061046B7A50010938545EF54
:1057100037A500101305458FEFE0FFF0029001451B
:10572000C9BF83C5450083475400A207DD8DEFF054
:10573000EFD42A861DC583460500A2852685EF0085
:10574000704845BFEFF0FFEE2A8611CD8346050075
:10575000A2852685EF00104769BF014559BF014565
:1057600049BF014579B7014569B78280828082804F
:105770008280B74700209387475403C5170033350D
:10578000A0008280B747002003A547541355254841
:105790008280B747002003C517F2130515F0333593
:1057A000A0008280011106CE22CC26CA4AC84EC66D
:1057B0002A892E84AE89F13FAA84631A050C2DC074
:1057C0001306400581453745002013054554EF3049
:1057D0004008A38101881385F186EFC08FB213843E
:1057E000F186A3A5818637450020130545DDEFC06E
:1057F000CFBC37440020130504DCEF20F00A13046B
:1058000004DCA3AB8186B74700109387477599C71F
:105810001385B187EFE01FF4A3AFA186014425A84B
:105820001306201DB7A500109385C5F537A50010F8
:105830001305458FEFE03FDF029091A8998F9607FF
:1058400037A700101307C7F6BA97DC4385C78297BE
:1058500005041374F40F03C7B187A28793061700DA
:1058600063CF8602E37CE4FC83A7F187131754001F
:10587000BA97E1FF1306001FB7A500109385C5F581
:1058800037A500101305458FEFE0FFD9029026855C
:10589000F2406244D2444249B24905618280B7472E
:1058A0000020A38027F3CE854A85EFF06FF8AA8405
:1058B00009C54A85EFF08FF0D9BF1306801FB7A541
:1058C00000109385C5F537A500101305458FEFE04F
:1058D0009FD502906DBF411106C626C24AC0B74788
:1058E000002083C717F23E8983C7250093F7070777
:1058F00095EB22C42E84B74700209387475483C575
:1059000027002285EF10F054AA8405CDA2854A8590
:10591000EFF08FFFAA8422442685B24092440249C8
:10592000410182801306B050B7A50010938545EC65
:1059300037A500101305458FEFE0FFCE029081449C
:10594000E1BF1306C050B7A50010938545EC37A5FD
:1059500000101305458FEFE01FCD029022446DBF6C
:10596000797106D622D426D24AD04ECE52CC56CA0F
:105970005AC85EC6AA8A2E84B289368A3A8BBE8BF2
:105980000149B9A81306704EB7A50010938545EDDF
:1059900037A500101305458FEFE0FFC80290814442
:1059A0002685B250225492540259F249624AD24A90
:1059B000424BB24B456182801306804EB7A5001062
:1059C000938545ED37A500101305458FEFE0BFC562
:1059D0000290F9B72380BB00834704003E94050979
:1059E000635A3903034714009547E31DF7F88345CD
:1059F00034008D89E39845F9A2855685EFF0BFED17
:105A0000AA845DD98345240093D77500E1F723006C
:105A1000BB00D9B7854469B7411106C613F5F50730
:105A20009D813325B52013050503B74700209387D3
:105A300047543E9583A5B1861105EF10B034B240AE
:105A400041018280411106C613F5F5079D8133257A
:105A5000B52013050503B7470020938747543E95AB
:105A600083A5B1861105EF109039B24041018280C3
:105A7000411106C622C426C2B747002003C517F24B
:105A800013F4F50793D47500B74700209387475464
:105A9000B327F420A69783C74703858BA1E7B747B1
:105AA000002093874754B327F420A69703C74703E2
:105AB00013671700238AE702EFF08FE931E1B74758
:105AC0000020938747543324F420269483474403CB
:105AD000F99B230AF40283474403ED9B230AF40253
